:04000000F9EF07F01D
:100F000000496E636F727265637420636F6D6D610B
:100F10006E642E0D0A004F4B2C204C4544204F464A
:100F2000462E0D0A004F4B2C204C4544204F4E2E90
:0B0F30000D0A004F4646004F4E000027
:100F3C00000E196E20EE24F010EE10F0060EDBCF32
:100F4C00E3FFE806FCE24AEC08F00150186E0A0ECA
:100F5C001818D8B4B4EF07F0B6EF07F0C7EF07F0E6
:100F6C001950060FD96EDA6A18C0DFFF192A0A0E5B
:100F7C001964C3EF07F0C5EF07F0C7EF07F0000ED9
:100F8C00196E3B0E1818D8A4CEEF07F0D0EF07F06F
:100F9C00A9EF07F01950060FD96EDA6ADF6A000E56
:100FAC00196E000E176EE3EF07F01750100FD96E85
:100FBC00DA6ADF503EEC08F0172A100E016E12ECC4
:100FCC0008F01750046E056A0150045C0250055875
:100FDC00D8A0F3EF07F0F5EF07F0DBEF07F0A9EF80
:100FEC0007F000EF00F0A20EF66E100EF76E000E7A
:100FFC00F86E00EE24F010EE07F00900F5CFEEFFCE
:10100C00E550E150FAE100EE1AF00A0EEE6AE8063D
:10101C00FDE100019EEF07F001C003F017EF08F0AF
:10102C00012A0150D96EDA6ADF50D8A420EF08F0FB
:10103C0022EF08F016EF08F00350015C016E026A13
:10104C0001BE020612000E01C8AF2FEF08F031EFFF
:10105C0008F029EF08F0000E236E98A338EF08F083
:10106C003AEF08F03CEF08F09899988994511200E7
:10107C00016E0E01C8AD45EF08F047EF08F03FEFE9
:10108C0008F001C095FE120029EC08F0036E035025
:0D109C00016E026A1200746573740D0A0083
:020000040030CA
:0C000000FCFFFFFF9FFFFFFFFFFFFFFF63
:00000001FF
