:040000002AEF1BF0D8
:100F000000696E66006E616E002564002566000053
:100F1000000E0001816F4EC082F04FC083F050C0C0
:100F200084F051C085F085BF9AEF07F098EF07F085
:100F3000AEEF07F0010E816F82C001F083C002F0B6
:100F400084C003F085C004F09EEC1CF001C082F068
:100F500002C083F003C084F004C085F0000E0001DD
:100F6000876F000E866FB2C071F0B3C072F081510E
:100F7000D8B4BDEF07F0BFEF07F0D3EF07F0815112
:100F8000D8A4C5EF07F0C7EF07F0CDEF07F0000ECC
:100F9000676F2B0E666FD1EF07F0000E676F2D0E97
:100FA000666F66C081F082C001F083C002F084C029
:100FB00003F085C004F0C5EC18F001040210D8A4B9
:100FC000E4EF07F0E6EF07F015EF08F000018151BC
:100FD000D8B4EDEF07F0EFEF07F0F8EF07F081C0BE
:100FE00000F17107D8A07207000E876F010E866F9F
:100FF000000E8625016E010E8721026E010E036E22
:101000007FEC1CF00001FD0E7127FF0E72234DC016
:1010100011F0000E126E010E136E71C014F072C04A
:1010200015F0F7EC1AF07BEF0CF082C001F083C0F2
:1010300002F084C003F085C004F0C5EC18F0015044
:101040000210D8A426EF08F028EF08F046EF08F0C9
:1010500000018151D8B42FEF08F031EF08F03AEFDA
:1010600008F081C000F17107D8A07207000E876FE9
:10107000010E866F000E8625016E010E8721026E1D
:10108000050E036E7FEC1CF002EF08F0000E00016D
:10109000886F000E896F800E8A6F3F0E8B6F000E77
:1010A000706F000E6F6F82C001F083C002F084C0C9
:1010B00003F085C004F0000E056E000E066E000EF3
:1010C000076E000E086E5BEC1AF0D8B06AEF08F0FD
:1010D0006CEF08F04BEF09F079EF08F073C088F07F
:1010E00074C089F075C08AF076C08BF000016F4B38
:1010F000702B88C028F089C029F08AC02AF08BC0E4
:101100002BF0000E2C6E000E2D6E200E2E6E410E5A
:101110002F6EDCEC0EF028C073F029C074F02AC0EA
:1011200075F02BC076F000017351825D016E745131
:101130008359026E75518459036E76518559046E38
:1011400058EC1BF004BEB0EF08F00450031002107E
:1011500009E1020E015CD8A0B0EF08F0B2EF08F090
:101160006EEF08F073C041F074C042F075C043F0F8
:1011700076C044F082C045F083C046F084C047F09A
:1011800085C048F043EC18F0D8A0C9EF08F0CBEFC9
:1011900008F06EEF08F000018851825D016E895100
:1011A0008359026E8A518459036E8B518559046E9E
:1011B00058EC1BF004BEEAEF08F0045003100210D4
:1011C00007E1020E015CD8B0E8EF08F0EAEF08F0A2
:1011D00032EF09F088C082F089C083F08AC084F0C1
:1011E0008BC085F04BEF09F088C00FF089C010F07C
:1011F0008AC011F08BC012F0000E136E000E146E38
:10120000200E156E410E166EF1EC10F00FC088F036
:1012100010C089F011C08AF012C08BF000016F0776
:10122000D8A070078851825D016E89518359026E82
:101230008A518459036E8B518559046E58EC1BF00A
:1012400004BE30EF09F004500310021007E1020E53
:10125000015CD8B02EEF09F030EF09F032EF09F061
:10126000EAEF08F082C041F083C042F084C043F04E
:1012700085C044F088C045F089C046F08AC047F078
:101280008BC048F043EC18F0D8A049EF09F04BEFC1
:1012900009F0F4EF08F052C069F069C06AF000018B
:1012A000B5BF55EF09F057EF09F05DEF09F0B4C095
:1012B00062F0B5C063F061EF09F0000E636F060ED7
:1012C000626F62C06DF063C06EF06D4B6E2B660E88
:1012D0006A19D8A46EEF09F070EF09F090EF09F0E9
:1012E00070BF77EF09F075EF09F083EF09F0000E9A
:1012F000886F000E896F800E8A6F3F0E8B6F000E15
:10130000706F000E6F6F670E6919D8B48AEF09F01D
:101310008CEF09F090EF09F06F516D2770516E233B
:10132000000E786F000E776F82C079F083C07AF07C
:1013300084C07BF085C07CF088C073F089C074F0F5
:101340008AC075F08BC076F021EF0AF079C00FF0FB
:101350007AC010F07BC011F07CC012F088C013F08E
:1013600089C014F08AC015F08BC016F0F1EC10F0B3
:101370000FC028F010C029F011C02AF012C02BF0C5
:10138000DDEC15F028C07DF029C07EF02AC07FF08A
:101390002BC080F07DC001F07EC002F07FC003F062
:1013A00080C004F0C0EC17F001C06BF002C06CF01C
:1013B00079C041F07AC042F07BC043F07CC044F079
:1013C0007DC02CF07EC02DF07FC02EF080C02FF0AD
:1013D00088C028F089C029F08AC02AF08BC02BF081
:1013E000DCEC0EF028C045F029C046F02AC047F0DA
:1013F0002BC048F0FAEC1BF041C079F042C07AF003
:1014000043C07BF044C07CF088C00FF089C010F06E
:101410008AC011F08BC012F0000E136E000E146E15
:10142000200E156E410E166EF1EC10F00FC088F014
:1014300010C089F011C08AF012C08BF00001774B08
:10144000782B6D51775D7851800A536E6E51800A0A
:101450005358D8A02EEF0AF030EF0AF0A6EF09F0AB
:1014600088C028F089C029F08AC02AF08BC02BF0F0
:10147000000E2C6E000E2D6EA00E2E6E400E2F6EE6
:10148000DCEC0EF028C07DF029C07EF02AC07FF091
:101490002BC080F079C041F07AC042F07BC043F0AD
:1014A0007CC044F07DC045F07EC046F07FC047F070
:1014B00080C048F043EC18F0D8B061EF0AF063EF59
:1014C0000AF06EEF0AF0000E00017D6F000E7E6FD5
:1014D000000E7F6F000E806F97EF0AF079C001F069
:1014E0007AC002F07BC003F07CC004F07DC005F040
:1014F0007EC006F07FC007F080C008F05BEC1AF0F9
:10150000D8A085EF0AF087EF0AF097EF0AF0000104
:101510006BB18DEF0AF08FEF0AF097EF0AF0000E33
:101520007D6F000E7E6F000E7F6F000E806F82C099
:1015300001F083C002F084C003F085C004F07DC0D8
:1015400005F07EC006F07FC007F080C008F07CEC9C
:101550000CF001C079F002C07AF003C07BF004C047
:101560007CF079C041F07AC042F07BC043F07CC08F
:1015700044F0000E2C6E000E2D6E200E2E6E410ECD
:101580002F6E73C028F074C029F075C02AF076C0A1
:101590002BF0DCEC0EF028C045F029C046F02AC044
:1015A00047F02BC048F043EC18F0D8A0DAEF0AF06F
:1015B000DCEF0AF005EF0BF000016F4B702B73C0EE
:1015C00028F074C029F075C02AF076C02BF0000E08
:1015D0002C6E000E2D6E200E2E6E410E2F6EDCEC4A
:1015E0000EF028C073F029C074F02AC075F02BC02B
:1015F00076F0660E00016A19D8A401EF0BF003EF34
:101600000BF005EF0BF06D4B6E2B73C088F074C0C0
:1016100089F075C08AF076C08BF06FC060F070C042
:1016200061F0000E0001686F000E656F000E646FC0
:10163000000E786F000E776F03EF0CF079C00FF09B
:101640007AC010F07BC011F07CC012F088C013F09B
:1016500089C014F08AC015F08BC016F0F1EC10F0C0
:101660000FC028F010C029F011C02AF012C02BF0D2
:10167000DDEC15F028C07DF029C07EF02AC07FF097
:101680002BC080F07DC001F07EC002F07FC003F06F
:1016900080C004F0C0EC17F002BE5AEF0BF002500D
:1016A00007E10A0E015CD8B058EF0BF05AEF0BF0CF
:1016B0006AEF0BF07DC001F07EC002F07FC003F046
:1016C00080C004F0C0EC17F001C06BF002C06CF0F9
:1016D0006FEF0BF0000E00016C6F090E6B6F0001D5
:1016E0006851D8A476EF0BF078EF0BF0A0EF0BF079
:1016F00061BF7FEF0BF07DEF0BF0A0EF0BF0000E62
:101700008625D96E010E8721DA6E2E0EDF6E864B8E
:10171000872B7107D8A07207010E686FA0EF0BF03E
:10172000000E8625D96E010E8721DA6E300EDF6E2F
:10173000864B872B7107D8A072076407D8A065076E
:1017400064516511D8A4A7EF0BF0A9EF0BF090EF4F
:101750000BF0000E8625D96E010E8721DA6E6B51D3
:10176000300FDF6E864B872B7107D8A0720779C0C8
:1017700041F07AC042F07BC043F07CC044F07DC0B1
:101780002CF07EC02DF07FC02EF080C02FF088C0DE
:1017900028F089C029F08AC02AF08BC02BF0DCEC3D
:1017A0000EF028C045F029C046F02AC047F02BC0F3
:1017B00048F0FAEC1BF041C079F042C07AF043C027
:1017C0007BF044C07CF088C00FF089C010F08AC064
:1017D00011F08BC012F0000E136E000E146E200E6E
:1017E000156E410E166EF1EC10F00FC088F010C0AF
:1017F00089F011C08AF012C08BF000016007D8A0F8
:101800006107774B782B6D51775D7851800A536E65
:101810006E51800A5358D8B010EF0CF012EF0CF054
:1018200020EF0CF087BF1EEF0CF0875109E14B0E43
:10183000865DD8A01EEF0CF020EF0CF01EEF0BF031
:10184000000E786F4F0E776F000E7725D96E010E60
:101850007821DA6EDF6A000E536E010E546E8651E7
:10186000535E8751545A77515324016E7851542056
:10187000026E000E036E010E046E86C005F087C076
:1018800006F083EC1BF000018651775D866F87516F
:101890007859876F8151D8A450EF0CF053EF0CF0BA
:1018A000010E54EF0CF0000E776F786B8151D8B4B5
:1018B0005CEF0CF05EEF0CF069EF0CF08607D8A03F
:1018C0008707000E8625D96E010E8721DA6E81C04A
:1018D000DFFF7751715F7851725B4DC011F0000EE0
:1018E0008625126E010E8721136E71C014F072C02E
:1018F00015F0F7EC1AF012000450800B0D6E045036
:1019000004240F6E03AE87EF0CF089EF0CF08AEF22
:101910000CF00F800F50D8B490EF0CF092EF0CF059
:10192000A7EF0CF00F28D8A498EF0CF09AEF0CF06A
:10193000A2EF0CF0000E016E000E026E000E036EA0
:10194000000E046E038E000E046EAFEF0CF0000E5E
:10195000016E000E026E000E036E000E046E085043
:10196000800B0E6E0D500E18D8B4B9EF0CF0BBEF13
:101970000CF0BCEF0CF00D8C085008240E6E07AE76
:10198000C4EF0CF0C6EF0CF0C7EF0CF00E800E5059
:10199000D8B4CDEF0CF0CFEF0CF0E4EF0CF00E2844
:1019A000D8A4D5EF0CF0D7EF0CF0DFEF0CF0000E61
:1019B000056E000E066E000E076E000E086E078E96
:1019C000000E086EECEF0CF0000E056E000E066EB9
:1019D000000E076E000E086E0F500E5CD8B0F3EFCD
:1019E0000CF0F5EF0CF01CEF0DF00DACFAEF0CF075
:1019F000FCEF0CF0FEEF0CF0800E0D1A0FC010F093
:101A00000EC00FF010C00EF001C010F005C001F0C4
:101A100010C005F002C010F006C002F010C006F0C1
:101A200003C010F007C003F010C007F004C010F0AE
:101A300008C004F010C008F0000E106E0F500EC069
:101A400009F00A6A095E000E0A5A0ABE31EF0DF06B
:101A50000A5009E11A0E095CD8A031EF0DF033EFFE
:101A60000DF06AEF0DF00150021003100410D8A41D
:101A70003CEF0DF03FEF0DF0010E40EF0DF0000ECA
:101A8000106E000E016E000E026E000E036E000E50
:101A9000046E0EC00FF073EF0DF010A052EF0DF0BA
:101AA00054EF0DF05AEF0DF0D89010300109106E80
:101AB0005CEF0DF0D890103201A061EF0DF063EFF4
:101AC0000DF064EF0DF0108E043404320332023254
:101AD00001320F2A0E500F5CD8A071EF0DF073EF9A
:101AE0000DF04DEF0DF00DBC78EF0DF07AEF0DF02D
:101AF000BAEF0DF00F50D8A480EF0DF082EF0DF08B
:101B00008CEF0DF0000E016E000E026E000E036EE3
:101B1000000E046EDBEF0EF0055001260650022287
:101B2000075003220850042204A099EF0DF09BEF08
:101B30000DF047EF0EF010A0A0EF0DF0A2EF0DF0AA
:101B4000A8EF0DF0D89010300109106EAAEF0DF03B
:101B5000D890103201A0AFEF0DF0B1EF0DF0B2EF61
:101B60000DF0108E043404320332023201320F2A97
:101B700047EF0EF00550015C06500258075003581D
:101B80000450800A096E0850800A0958D8B0CBEF7B
:101B90000DF0CDEF0DF0F8EF0DF00150055C096E82
:101BA000025006580A6E035007580B6E045008582E
:101BB0000C6EFF0E0924016EFF0E0A20026EFF0E4E
:101BC0000B20036EFF0E0C20046E800E0D1A106C9D
:101BD0001050D8A4EEEF0DF0F0EF0DF000EF0EF086
:101BE000010E0126000E02220322042200EF0EF055
:101BF0000550015E0650025A0750035A0850045A15
:101C00000150021003100410D8A409EF0EF00BEFDE
:101C10000EF040EF0EF01050D8A411EF0EF013EFBD
:101C20000EF040EF0EF0000E016E000E026E000E80
:101C3000036E000E046EDBEF0EF0D8900136023614
:101C40000336043610AE27EF0EF029EF0EF02AEF20
:101C50000EF0018010A02FEF0EF031EF0EF035EFF7
:101C60000EF0D880103637EF0EF0D89010360F50A7
:101C7000D8B43DEF0EF03FEF0EF040EF0EF00F0640
:101C800003AE45EF0EF047EF0EF01DEF0EF0000E25
:101C90000E6E10AE4EEF0EF050EF0EF068EF0EF03D
:101CA00010C009F07F0E0916D8B459EF0EF05BEFA3
:101CB0000EF05FEF0EF0010E0E6E68EF0EF001A059
:101CC00064EF0EF066EF0EF068EF0EF05BEF0EF0D3
:101CD0000E50D8B46EEF0EF070EF0EF09BEF0EF0DA
:101CE000010E0126000E02220322042204A07BEF33
:101CF0000EF07DEF0EF09BEF0EF001C009F002C078
:101D00000AF003C00BF004C00CF00C340C320B32A0
:101D10000A32093209C001F00AC002F00BC003F018
:101D20000CC004F00F28D8B498EF0EF09AEF0EF024
:101D30009BEF0EF00F2A0F28D8B4A1EF0EF0A3EFFF
:101D40000EF0ABEF0EF00F50D8A4A9EF0EF0ABEFF2
:101D50000EF0BDEF0EF0000E016E000E026E000ED2
:101D6000036E000E046E0F50D8A4B9EF0EF0BBEF57
:101D70000EF0BDEF0EF0000E0D6E0FA0C2EF0EF0D4
:101D8000C4EF0EF0C7EF0EF0038EC8EF0EF0039E07
:101D9000D8900F30046E0DAED0EF0EF0D2EF0EF0F3
:101DA000D3EF0EF0048E01C001F002C002F003C0B8
:101DB00003F004C004F012002B50800B346E2B5043
:101DC0002B243A6E2AAEE7EF0EF0E9EF0EF0EAEFC1
:101DD0000EF03A803A50D8B4F0EF0EF0F2EF0EF079
:101DE00005EF0FF03A28D8A4F8EF0EF0FAEF0EF056
:101DF00002EF0FF0000E286E000E296E000E2A6E04
:101E0000000E2B6E2A8E0DEF0FF0000E286E000EC6
:101E1000296E000E2A6E000E2B6E2F50800B341A86
:101E20002F502F24356E2EAE18EF0FF01AEF0FF053
:101E30001BEF0FF035803550D8B421EF0FF023EFB2
:101E40000FF036EF0FF03528D8A429EF0FF02BEF65
:101E50000FF033EF0FF0000E2C6E000E2D6E000E03
:101E60002E6E000E2F6E2E8E3EEF0FF0000E2C6E9B
:101E7000000E2D6E000E2E6E000E2F6E3550D8B453
:101E800044EF0FF046EF0FF04EEF0FF03A50D8A4AA
:101E90004CEF0FF04EEF0FF058EF0FF0000E286EE2
:101EA000000E296E000E2A6E000E2B6EF0EF10F061
:101EB0002E502802F3CF3FF0F4CF40F03F50366E63
:101EC000376A386A396A40503B6E3C6A3D6A3E6AFE
:101ED0002D502902F3CF3FF0F4CF40F03F5036268B
:101EE000000E37223822392240503B26000E3C2279
:101EF0003D223E222C502A02F3CF3FF0F4CF40F097
:101F00003F503626000E37223822392240503B26D9
:101F1000000E3C223D223E2238C039F037C038F056
:101F200036C037F0366A2C502902F3CF3FF0F4CF99
:101F300040F03F50362640503722000E3822000E27
:101F400039222D502802F3CF3FF0F4CF40F03F501C
:101F5000362640503722000E3822000E392238C073
:101F600039F037C038F036C037F0366A2C502802C6
:101F7000F3CF3FF0F4CF40F03F50362640503722A9
:101F8000000E3822000E39222E502902F3CF3FF0E6
:101F9000F4CF40F03F503B2640503C22000E3D2203
:101FA000000E3E222D502A02F3CF3FF0F4CF40F036
:101FB0003F503B2640503C22000E3D22000E3E2268
:101FC0002E502A02F3CF3FF0F4CF40F03F50306E56
:101FD0004050316E326A336A32C033F031C032F071
:101FE00030C031F0306A30503B2631503C22325004
:101FF0003D2233503E2236C030F037C031F038C079
:1020000032F039C033F0190E0BEF10F0D8903332A4
:10201000323231323032E82E06EF10F030503B26AB
:1020200031503C2232503D2233503E2238C039F0EC
:1020300037C038F036C037F0366A35503AC030F025
:10204000316A3026000E3122820E30243F6EFF0EA0
:102050003120406E41EF10F0D8903B363C363D3693
:102060003E3639AE36EF10F038EF10F039EF10F0A1
:102070003B80D89036363736383639363F06D8A0CA
:1020800040063DAE46EF10F048EF10F02CEF10F098
:10209000000E356E39AE4FEF10F051EF10F075EFC6
:1020A00010F0FF0E3614306EFF0E3714316EFF0E37
:1020B0003814326E7F0E3914336E305031103210B6
:1020C0003310D8B466EF10F068EF10F06CEF10F03A
:1020D000010E356E75EF10F03BA071EF10F073EF4D
:1020E00010F075EF10F068EF10F03550D8B47BEFBA
:1020F00010F07DEF10F0A1EF10F0010E3B26000E66
:102100003C223D223E223EA088EF10F08AEF10F0E4
:10211000A1EF10F03BC030F03CC031F03DC032F0D8
:102120003EC033F03334333232323132303230C0A9
:102130003BF031C03CF032C03DF033C03EF03F4A8E
:10214000402A40BEACEF10F0405008E13F28D8A034
:10215000ACEF10F0AEEF10F0B8EF10F0000E3B6EE9
:10216000000E3C6E800E3D6E7F0E3E6EE6EF10F070
:1021700040BEC5EF10F0405006E13F04D8B0C3EFB9
:1021800010F0C5EF10F0D1EF10F0000E3B6E000E16
:102190003C6E000E3D6E000E3E6E000E346EE6EF9D
:1021A00010F03FC03AF0FF0E3B16FF0E3C167F0EBC
:1021B0003D16000E3E163AA0E0EF10F0E2EF10F0F0
:1021C000E3EF10F03D8ED8903A303E6E34503E1220
:1021D0003BC028F03CC029F03DC02AF03EC02BF0A7
:1021E00012001250800B1F6E12501224266E11AE78
:1021F000FCEF10F0FEEF10F0FFEF10F026802650FD
:10220000D8B405EF11F007EF11F01CEF11F02628FC
:10221000D8A40DEF11F00FEF11F017EF11F0000E31
:102220000F6E000E106E000E116E000E126E118EEB
:10223000000E126E24EF11F0000E0F6E000E106EE5
:10224000000E116E000E126E1650800B1F1A1650E3
:102250001624276E15AE2FEF11F031EF11F032EF8B
:1022600011F027802750D8B438EF11F03AEF11F071
:102270004FEF11F02728D8A440EF11F042EF11F0F2
:102280004AEF11F0000E136E000E146E000E156E64
:10229000000E166E158E000E166E57EF11F0000E22
:1022A000136E000E146E000E156E000E166E135097
:1022B000141015101610D8A460EF11F062EF11F091
:1022C0007AEF11F0000E0F6E000E106E000E116E00
:1022D000000E126E800E11127F0E12121F5012127B
:1022E0000FC00FF010C010F011C011F012C012F0AA
:1022F000BDEF12F02650D8A480EF11F082EF11F05C
:102300008CEF11F0000E0F6E000E106E000E116EAD
:10231000000E126EBDEF12F0275026C017F0186A9B
:10232000175E000E185A7F0E1724206E000E18201C
:10233000216E0FC01BF010C01CF011C01DF012C0A8
:102340001EF0000E0F6E000E106E000E116E000ECD
:10235000126E000E226E000E236E000E246E000E12
:10236000256E000E276EEDEF11F02750D8B4BBEFAD
:1023700011F0BDEF11F0D4EF11F0D8901B361C36E0
:102380001D361E36D8900F3610361136123625AE51
:10239000CCEF11F0CEEF11F0CFEF11F00F80D8900D
:1023A000223623362436253613501B5C14501C5815
:1023B00015501D5816501E58D8A0E1EF11F0E3EF4C
:1023C00011F0ECEF11F0258C13501B5E14501C5AC9
:1023D00015501D5A16501E5A272A190E2764F3EF5E
:1023E00011F0F5EF11F0B5EF11F01B501C101D109E
:1023F0001E10D8B4FEEF11F000EF12F018EF12F03B
:10240000228018EF12F0D8900F361036113612369F
:1024100025AE0DEF12F00FEF12F010EF12F00F805B
:10242000D89022362336243625362006D8A0210619
:1024300011AE1DEF12F01FEF12F003EF12F0000EBD
:10244000276E25AE26EF12F028EF12F04CEF12F0B7
:10245000FF0E2214176EFF0E2314186EFF0E2414A5
:10246000196E7F0E25141A6E1750181019101A10B5
:10247000D8B43DEF12F03FEF12F043EF12F0010E2F
:10248000276E4CEF12F00FA048EF12F04AEF12F057
:102490004CEF12F03FEF12F02750D8B452EF12F089
:1024A00054EF12F078EF12F0010E0F26000E1022FA
:1024B0001122122212A05FEF12F061EF12F078EFFA
:1024C00012F00FC017F010C018F011C019F012C0B0
:1024D0001AF01A341A3219321832173217C00FF0A4
:1024E00018C010F019C011F01AC012F0204A212AA9
:1024F00021BE83EF12F0215008E12028D8A083EFFD
:1025000012F085EF12F090EF12F0000E216E2068AD
:10251000000E0F6E000E106E000E116E000E126E89
:1025200021BE9DEF12F0215006E12004D8B09BEFB0
:1025300012F09DEF12F0ABEF12F0000E216E000EC4
:10254000206E000E0F6E000E106E000E116E000E4B
:10255000126E000E1F6E20C026F026A0B2EF12F001
:10256000B4EF12F0B7EF12F0118EB8EF12F0119E27
:10257000D8902630126E6EEF11F012005650D96EC0
:10258000DA6ADFCFF6FF0F0EF76E000EF86E080066
:10259000F550250AD8A4CFEF12F0D1EF12F050EF8A
:1025A00014F05650D96EDA6ADF2A000E0001B36FBC
:1025B000000EB26FB2C0B6F0B469B5695650D96EAC
:1025C000DA6ADF50916F91C0F6FF0F0EF76E000EC2
:1025D000F86E0800F550640AD8B4F1EF12F0F3EF8A
:1025E00012F003EF13F091C0F6FF0F0EF76E000E1E
:1025F000F86E0800F550690AD8A401EF13F003EF54
:1026000013F091EF13F05750D96EDA6A020EDF26FD
:10261000DF5CD96EDA6ADECF8DF0DECF8EF05650F9
:10262000D96EDA6A9129DF6E500E926F8EBF1BEF62
:1026300013F01EEF13F0010E1FEF13F0000E8C6F5E
:102640009207000E9225D96EDA6A010EDA228DC049
:1026500001F08EC002F0000E046E0A0E036E03EC51
:102660001AF001C007F002C008F0D5EC1CF00750CA
:10267000300FDF6E8DC001F08EC002F0000E046ED0
:102680000A0E036E44EC19F001C08DF002C08EF00A
:1026900000018D518E11D8B450EF13F052EF13F0AA
:1026A0005AEF13F09251D8A458EF13F05AEF13F0E9
:1026B00020EF13F09251D8B460EF13F062EF13F0F3
:1026C00086EF13F08C51D8B468EF13F06AEF13F073
:1026D00086EF13F09207000E9225D96EDA6A010E8A
:1026E000DA222D0EDF6E86EF13F0000E9225D96EE2
:1026F000DA6A010EDA22DF50586E5850036E046A0F
:1027000055C005F0A6EC19F00001922B500E92195D
:10271000D8A48DEF13F08FEF13F075EF13F063EF84
:1027200014F05650D96EDA6ADF50916F91C0F6FFFF
:102730000F0EF76E000EF86E0800F5CF92F0ACEFBA
:1027400013F0912BC5EF13F06C0E926FC5EF13F0E1
:10275000000E926FC5EF13F09251586E596A59509E
:10276000000AD8B4B6EF13F0A8EF13F058504C0A93
:10277000D8B4A1EF13F02A0AD8B4A4EF13F00A0AD0
:10278000D8B4A1EF13F0A8EF13F091C0F6FF0F0E2D
:10279000F76E000EF86E0800F550660AD8A4D3EF65
:1027A00013F0D5EF13F04AEF14F0FFEF13F057508A
:1027B000D96EDA6ADFCF58F0040EDF265850D96E92
:1027C000DA6ADECF8DF0DECF8EF0DECF8FF0DECF97
:1027D00090F014EF14F05750D96EDA6ADFCF58F04A
:1027E000040EDF265850D96EDA6ADECF8DF0DECFC8
:1027F0008EF0DECF8FF0DECF90F014EF14F0925118
:10280000586E596A5950000AD8B409EF14F014EF01
:1028100014F058504C0AD8B4EBEF13F0200AD8B497
:10282000D7EF13F014EF14F05650D96EDA6A9129ED
:10283000DF6E32EF14F055C04DF08DC04EF08EC0FB
:102840004FF08FC050F090C051F091C0F6FF0F0EC6
:10285000F76E000EF86E0800F5CF52F088EC07F026
:1028600063EF14F091C0F6FF0F0EF76E000EF86ED6
:102870000800F550586E596A5950000AD8B443EF11
:1028800014F04AEF14F05850660AD8B41BEF14F055
:102890004AEF14F05650D96EDA6ADF2A63EF14F06B
:1028A0005650D96EDA6ADFCFF6FF0F0EF76E000EC4
:1028B000F86E0800F550036E046A55C005F0A6ECEA
:1028C00019F04AEF14F0120009EC1DF090EC1DF025
:1028D00059EC1DF0ABEC1BF093EC1DF021EEA8F0D1
:1028E00011EE7EF0050EDBCFE3FFE806FCE2B8C098
:1028F00089F1B9C08AF1BAC08BF121EE9AF011EEDC
:1029000050F00D0EDBCFE3FFE806FCE221EEAEF067
:1029100011EE84F0040EDBCFE3FFE806FCE2020ECA
:1029200084EC1DF064EC1DF001C098F102C099F137
:102930005E0E0001966F010E976F090E986F98C199
:1029400099F099C19AF03FEC1CF0000E136EC00E86
:10295000146E7F0E156E440E166E98C101F099C16B
:1029600002F0036A046A000EE6EC16F001C00FF0F4
:1029700002C010F003C011F004C012F0F1EC10F02E
:102980000FC028F010C029F011C02AF012C02BF09F
:10299000330E2C6E330E2D6E530E2E6E400E2F6E98
:1029A000DCEC0EF028C08CF129C08DF12AC08EF12C
:1029B0002BC08FF16E0E0001966F010E976F0C0EFB
:1029C000986F8CC199F08DC19AF08EC19BF08FC128
:1029D0009CF03FEC1CF098C15BF099C15CF0060ED6
:1029E000D8905B365C36E82EF0EF14F05BC090F1C7
:1029F0005CC091F190C101F091C102F0EFEC1CF0CC
:102A0000000E0101926F10EF15F07E0E9225D96E27
:102A1000DA6A010EDA22DF5041EC1DF00101922B3F
:102A20007E0E016E010E026EBAEC1CF00101925195
:102A30005B6E5C6A01505B5C02505C58D8A023EF6F
:102A400015F025EF15F005EF15F0000E936F34EF3C
:102A500015F05E0E9325D96EDA6A010EDA22DF5088
:102A600041EC1DF00101932B5E0E016E010E026E12
:102A7000BAEC1CF0010193515B6E5C6A01505B5C27
:102A800002505C58D8A047EF15F049EF15F029EF38
:102A900015F0000E946F58EF15F0890E9425D96E3D
:102AA000DA6A010EDA22DF5041EC1DF00101942BAD
:102AB000890E016E010E026EBAEC1CF001019451F8
:102AC0005B6E5C6A01505B5C02505C58D8A06BEF97
:102AD00015F06DEF15F04DEF15F0000E956F7CEFD2
:102AE00015F0500E9525D96EDA6A010EDA22DF5004
:102AF00041EC1DF00101952B500E016E010E026E8E
:102B0000BAEC1CF0010195515B6E5C6A01505B5C94
:102B100002505C58D8A08FEF15F091EF15F071EFCF
:102B200015F0000E966FA0EF15F06E0E9625D96E7B
:102B3000DA6A010EDA22DF5041EC1DF00101962B1A
:102B40006E0E016E010E026EBAEC1CF00101965180
:102B50005B6E5C6A01505B5C02505C58D8A0B3EFBE
:102B600015F0B5EF15F095EF15F0000E976FC4EF67
:102B700015F0840E9725D96EDA6A010EDA22DF503D
:102B800041EC1DF00101972B840E016E010E026EC7
:102B9000BAEC1CF0010197515B6E5C6A01505B5C02
:102BA00002505C58D8A0D7EF15F0D9EF15F0B9EF67
:102BB00015F08FEF14F000EF00F0AAC038F0ABC0B2
:102BC00039F0ACC03AF0ADC03BF028C038F029C0B5
:102BD00039F02AC03AF02BC03BF0810E2C6EFF0E6C
:102BE0002D6E38C02EF039C02FF03AC030F03BC007
:102BF00031F0180E01EF16F0D890313230322F320A
:102C00002E32E82EFCEF15F02E502C24366E000EDE
:102C10002D20376E37BE16EF16F0375009E1170E2C
:102C2000365CD8A016EF16F018EF16F022EF16F06B
:102C300028C028F029C029F02AC02AF02BC02BF088
:102C4000E5EF16F037BE27EF16F029EF16F099EFF3
:102C500016F036C02CF0FF0E2D6EFF0E2E6E7F0E7E
:102C60002F6E000E306E2C6638EF16F040EF16F027
:102C7000303430322F322E322D322C2E33EF16F0EC
:102C80002DC032F02EC033F02FC034F030C035F0FC
:102C9000325038142C6E335039142D6E34503A148F
:102CA0002E6E35503B142F6E2C502D102E102F10E1
:102CB000D8A45DEF16F05FEF16F061EF16F018EF95
:102CC00016F038C02CF039C02DF03AC02EF03BC0C1
:102CD0002FF0200E71EF16F0D8902F322E322D32B9
:102CE0002C32E82E6CEF16F02C502D102E102F10D9
:102CF000D8B47DEF16F07FEF16F087EF16F0325064
:102D000038263350392234503A2235503B22321C77
:102D10002C6E331C2D6E341C2E6E351C2F6E2C50D9
:102D200038162D5039162E503A162F503B16DDEF1F
:102D300016F038C02CF039C02DF03AC02EF03BC050
:102D40002FF0200EA9EF16F0D8902F322E322D3210
:102D50002C32E82EA4EF16F02C502D102E102F1030
:102D6000D8A4B5EF16F0B7EF16F0C1EF16F0000ECD
:102D7000386E000E396E000E3A6E000E3B6EDDEFBF
:102D800016F0D89038342C6E39342D6E3A342E6EBD
:102D90003B342F6E2C502D102E102F10D8B4D3EFA3
:102DA00016F0D5EF16F0DDEF16F0000E386E000EBF
:102DB000396E800E3A6EBF0E3B6E38C028F039C0B7
:102DC00029F03AC02AF03BC02BF01200096E0950DE
:102DD000D8B4EDEF16F0EFEF16F011EF17F004BED8
:102DE000F6EF16F0F4EF16F011EF17F001C005F052
:102DF00002C006F003C007F004C008F0051E061E5E
:102E0000071E081E052A000E06220722082205C0FA
:102E10000BF006C00CF007C00DF008C00EF019EF63
:102E200017F001C00BF002C00CF003C00DF004C09D
:102E30000EF00150021003100410D8A422EF17F076
:102E400024EF17F02EEF17F0000E016E000E026E49
:102E5000000E036E000E046EBFEF17F0960E0A6EA2
:102E600038EF17F00A2AD8900E320D320C320B329E
:102E7000000E0B14056E000E0C14066E000E0D14E1
:102E8000076EFE0E0E14086E05500610071008108F
:102E9000D8A44DEF17F04FEF17F032EF17F05DEFBA
:102EA00017F00A2A010E0B26000E0C220D220E220C
:102EB000D8900E320D320C320B32000E0B14056E10
:102EC000000E0C14066E000E0D14076EFF0E0E148D
:102ED000086E0550061007100810D8A472EF17F0FE
:102EE00074EF17F051EF17F07CEF17F00A06D89047
:102EF0000B360C360D360E360DBE81EF17F083EF14
:102F000017F08BEF17F0020E0A6089EF17F08BEFC6
:102F100017F076EF17F00AB090EF17F092EF17F076
:102F200093EF17F00D9ED8900A320AC005F0066A9A
:102F3000076A086A05C008F0076A066A056A05504C
:102F40000B1206500C1207500D1208500E120950A9
:102F5000D8B4ADEF17F0AFEF17F0B7EF17F004BE2E
:102F6000B6EF17F0B4EF17F0B7EF17F00E8E0BC0F7
:102F700001F00CC002F00DC003F00EC004F012000E
:102F8000033404340A6E0A50D8A4C9EF17F0CBEF0B
:102F900017F0D5EF17F0000E016E000E026E000E56
:102FA000036E000E046E42EF18F001C005F002C07F
:102FB00006F003C007F004C008F0200EE5EF17F09C
:102FC000D8900832073206320532E82EE0EF17F0CB
:102FD0000550096E038EFF0E0116FF0E0216FF0E3E
:102FE0000316000E0416960E0A5E0ABEFCEF17F0DA
:102FF000FAEF17F012EF18F00A50800A970FD8B0C6
:1030000004EF18F006EF18F008EF18F0CBEF17F008
:10301000D89004320332023201320A3E08EF18F02F
:103020002AEF18F01F0E0A6418EF18F01AEF18F0C4
:1030300022EF18F0CBEF17F0D890013602360336A6
:1030400004360A060A50D8A428EF18F02AEF18F020
:103050001CEF18F00950D8B430EF18F032EF18F028
:103060003AEF18F0041E031E021E016C000E02222D
:103070000322042201C001F002C002F003C003F0E9
:1030800004C004F01200000E4114496E000E4214F8
:103090004A6E800E43144B6E7F0E44144C6E4950A2
:1030A0004A104B104C10D8A458EF18F05AEF18F0F3
:1030B00062EF18F0000E416E000E426E000E436E7D
:1030C000000E446E000E4514496E000E46144A6E02
:1030D000800E47144B6E7F0E48144C6E49504A10B8
:1030E0004B104C10D8A477EF18F079EF18F081EF5F
:1030F00018F0000E456E000E466E000E476E000E74
:10310000486E44AE86EF18F088EF18F091EF18F093
:10311000416C421ED8B0422A431ED8B0432A800ECA
:10312000445648AE96EF18F098EF18F0A1EF18F05B
:10313000456C461ED8B0462A471ED8B0472A800E96
:103140004856000E411A000E421A000E431A800E15
:10315000441A000E451A000E461A000E471A800E39
:10316000481A4550415C46504258475043584850D1
:103170004458D8B0BEEF18F0C0EF18F0C3EF18F005
:10318000D890C4EF18F0D8801200AEC00BF0AFC0DA
:103190000CF0B0C00DF0B1C00EF001C00BF002C0D9
:1031A0000CF003C00DF004C00EF00BC005F00CC015
:1031B00006F00DC007F00EC008F0180EE5EF18F08D
:1031C000D8900832073206320532E82EE0EF18F0C8
:1031D0000550096E0A6A09500A10D8A4F2EF18F0D7
:1031E000F4EF18F014EF19F0D8900B34056E0C348E
:1031F000066E0D34076E0E34086E0550061007106B
:103200000810D8A406EF19F008EF19F00EEF19F026
:10321000000E026E020E016E43EF19F0000E026EF8
:10322000030E016E43EF19F009280A10D8A41BEF12
:1032300019F01DEF19F03FEF19F00BC005F00CC0AD
:1032400006F00DC007F00EC008F0090ED890053644
:10325000063607360836E82E26EF19F00550061018
:1032600007100810D8B437EF19F03AEF19F0010E33
:103270003BEF19F0000E016E026A43EF19F0000EE9
:10328000026E040E016E1200000E066E04BE4DEFBB
:1032900019F04BEF19F053EF19F0036C041ED8B07E
:1032A000042A010E066E02BE5AEF19F058EF19F00B
:1032B00060EF19F0016C021ED8B0022A010E061A46
:1032C000000E086E000E076E03500410D8B46BEFAA
:1032D00019F06DEF19F095EF19F0010E056E75EF0D
:1032E00019F0D89003360436052A04AE7AEF19F0A7
:1032F0007CEF19F071EF19F0D890073608360350BB
:10330000015C04500258D8A088EF19F08AEF19F038
:103310008FEF19F00350015E0450025A0780D890D5
:1033200004320332052E7CEF19F00650D8B49BEF1F
:1033300019F09DEF19F0A1EF19F0076C081ED8B035
:10334000082A07C001F008C002F012000550D8B4E6
:10335000ACEF19F0AEEF19F0B6EF19F00550D8A4A4
:10336000B4EF19F0B6EF19F0BBEF19F003508BEC86
:103370001DF002EF1AF00550D96EDA6A0A0ED9264E
:10338000DE50DE10D8B4C7EF19F0C9EF19F0E2EF44
:1033900019F00550D96EDA6A0A0ED9260550E16E89
:1033A000E26A030EE126DE50E65CE650800A0A6E11
:1033B000DE50800A0A58D8B0E0EF19F0E2EF19F0B9
:1033C00002EF1AF00550D96EDA6A030ED926DECF65
:1033D00006F0DDCF07F00550D96EDA6ADECF08F0CF
:1033E000DDCF09F006500824D96E07500920DA6EA7
:1033F00003C0DFFF0550D96EDA6A030ED926DE2A34
:10340000000EDD221200000E066E02BE0CEF1AF056
:103410000AEF1AF012EF1AF0016C021ED8B0022A5D
:10342000010E066E04BE19EF1AF017EF1AF01DEF29
:103430001AF0036C041ED8B0042A03500410D8B448
:1034400024EF1AF026EF1AF04AEF1AF0010E056E7B
:103450002EEF1AF0D89003360436052A04AE33EF67
:103460001AF035EF1AF02AEF1AF00350015C0450FD
:103470000258D8A03EEF1AF040EF1AF044EF1AF0CD
:103480000350015E0450025AD89004320332052ED4
:1034900035EF1AF00650D8B450EF1AF052EF1AF088
:1034A00056EF1AF0016C021ED8B0022A01C001F0DA
:1034B00002C002F01200000E0114096E000E021488
:1034C0000A6E800E03140B6E7F0E04140C6E0950EE
:1034D0000A100B100C10D8A470EF1AF072EF1AF04B
:1034E0007AEF1AF0000E016E000E026E000E036EEF
:1034F000000E046E000E0514096E000E06140A6E0E
:10350000800E07140B6E7F0E08140C6E09500A1003
:103510000B100C10D8A48FEF1AF091EF1AF099EF5E
:103520001AF0000E056E000E066E000E076E000EFD
:10353000086E055001180FE1065002180CE1075003
:10354000031809E108500418D8B4A9EF1AF0ABEF3A
:103550001AF0AEEF1AF0D890AFEF1AF0D880120040
:10356000000E866E000E856E000E826E000E836E5B
:10357000000E846E070E8B6EEF0E876EBF0E886E88
:103580008968FE0E8A6EFC0E0F01216F1C69BF0E4A
:10359000146F070E296FEF0E0C6F000E206F000ED8
:1035A000286F000E136F000E0B6F000E1B6F000EC6
:1035B000276F000E0A6F000E126F000E1A6F000EBA
:1035C0001F6F0969116919691E69070E266F08695D
:1035D000106918691D690F0E256F080E0E01E66F40
:1035E0000B0EF06F0B0EFA6F190E886F120015BEDE
:1035F000FEEF1AF0FCEF1AF002EF1BF0000E156E52
:10360000000E146E000E186E000E176E12EF1BF0F7
:10361000000E046E200E036E11C005F0A6EC19F02A
:10362000174A182A1450175C1850800A166E155045
:10363000800A1658D8A01FEF1BF021EF1BF008EFEF
:103640001BF012C00BF013C00CF011C00DF05FECBA
:103650001CF01200680EF66E3A0EF76E000EF86E51
:1036600001EE9AF010EE19F00900F5CFEEFFE550EB
:10367000E150FAE1300EF66E3B0EF76E000EF86E7A
:103680000900F5CFB8F00900F5CFB9F00900F5CF82
:10369000BAF001EE00F0500EEE6AE806FDE100EE31
:1036A000AAF00E0EEE6AE806FDE1000164EF14F0E8
:1036B00004BE5DEF1BF05FEF1BF069EF1BF001C074
:1036C00001F002C002F003C003F004C004F082EF76
:1036D0001BF001C005F002C006F003C007F004C0F3
:1036E00008F0051E061E071E081E052A000E0622EB
:1036F0000722082205C001F006C002F007C003F04F
:1037000008C004F0120003C00AF004C00BF001C0AE
:1037100008F002C009F09DEF1BF00AC0D9FF0BC0F2
:10372000DAFFDF50076E0A4A0B2A08C0D9FF09C02A
:10373000DAFF07C0DFFF084A092A0506D8A00606F7
:10374000052806E10628D8A4A8EF1BF0AAEF1BF075
:103750008DEF1BF01200000E656E000E666E000EFF
:10376000676E000E686E000E636E000E646E000ED3
:10377000616E000E0F015A6F000E586F000E596FE8
:10378000000E546F100E556F000E566F000E606ED7
:10379000000E536F000E516F000E526F840E5B6F60
:1037A000000E576F1200080E0E019A6F900E986F60
:1037B000240E996F190E966F000E976F000E016E12
:1037C000000E026E000E036E76EC1DF0000E016E10
:1037D000000E026E000E036E6FEC1DF0000E016E07
:1037E000000E026E000E036E7DEC1DF0000E000157
:1037F000B76F1200000E451A000E461A000E471A47
:10380000800E481A41C001F042C002F043C003F0EC
:1038100044C004F045C005F046C006F047C007F0BC
:1038200048C008F07CEC0CF001C041F002C042F04E
:1038300003C043F004C044F0120094C05AF029EFD2
:103840001CF093C055F05A0E566E95C057F0BEEC62
:1038500012F05AC0F6FF0F0EF76E000EF86E080059
:10386000F5500009D8A437EF1CF039EF1CF021EF18
:103870001CF0000E0001946F000E936F1200990E61
:1038800000019D6F96C09EF097C09FF0000EA26F42
:10389000000EA16F000EA96F000EA86F9E0E936F11
:1038A00098C094F09D0E956F1DEC1CF00001A15185
:1038B0009625D96EA2519721DA6EDF6A1200000EAA
:1038C000106E000E0F6E6EEF1CF00EC003F0046A57
:1038D0000DC005F0A6EC19F00F4A102A0F500B246A
:1038E000D96E10500C20DA6EDF500E6E0E50D8A438
:1038F0007CEF1CF07EEF1CF065EF1CF0120001C0A5
:1039000005F002C006F0032A0304046E04C0F6FFAB
:103910000F0EF76E000EF86E05C0D9FF06C0DAFF75
:10392000054A062A0800F5CFDFFFDF50D8A49BEF39
:103930001CF09DEF1CF083EF1CF0120001500210F0
:1039400003100410D8B4A7EF1CF0A9EF1CF0B1EFDE
:103950001CF0000E011A000E021A000E031A800E4F
:10396000041A01C001F002C002F003C003F004C059
:1039700004F0120001C003F002C004F0C2EF1CF01A
:10398000014A022A01C0D9FF02C0DAFFDF50D8A4E1
:10399000CCEF1CF0CEEF1CF0C0EF1CF00350015C2C
:1039A000016E04500258026E120008BEDAEF1CF0DD
:1039B000DCEF1CF0E2EF1CF007C007F008C008F0D5
:1039C000EEEF1CF007C009F008C00AF0091E0A1E3D
:1039D000094A0A2A09C007F00AC008F0120001C00B
:1039E00003F002C004F0D89004320332D8900432BD
:1039F00003320350A06E01C003F0030E0316060E3F
:103A0000046ED8900336042E01EF1DF003509F6E14
:103A1000120026EC1DF0B0EC1AF04DEC1DF0ABECF2
:103A20001BF059EC1DF018EC1DF0D3EC1BF012004C
:103A3000010EBE6E000EBD6E000EBF6EBB68000EA6
:103A4000BA6E0E01C993F00EBC6E1200000E0E018C
:103A5000DC6F000EDD6F000EDE6F000EDF6F000EFC
:103A6000E06F000EE16F120041444320566F6C740A
:103A70006167653A20004144433A20000D0A0A0A72
:013A80000045
:103A8200016E0E01C8AD48EF1DF04AEF1DF042EF86
:103A92001DF001C095FE1200620E0E01D36F000EE2
:103AA200D56F000ED76F020ED96F000ED86F1200BD
:103AB200800EA16E7F0EA06EC00E9F6EAD503F0BAA
:103AC2004009AD6E12000F015F51046E036A5E5130
:103AD2000324016E000E0420026E120001C0B6F132
:103AE20002C0B7F103C0B8F1120001C0B9F102C0BF
:103AF200BAF103C0BBF1120001C0B3F102C0B4F1CC
:103B020003C0B5F11200016E01C05AFF0F015B8FB5
:103B12005B811200026E025041EC1DF0120096EC25
:103B22001DF012000F015B9D1200BC8E12000D0AE7
:013B32000092
:020000040030CA
:0C000000ECFFFFFF9FFFFFFFFFFFFFFF73
:00000001FF
