:040000003BEF00F0E2
:100008005582FACF38F0FBCF39F00E01BDA90FEFBA
:1000180000F011EF00F01CEF00F0C5A916EF00F09A
:1000280018EF00F01CEF00F037EC22F035EF00F08D
:10003800F2AC21EF00F023EF00F035EF00F0C1A3A0
:1000480028EF00F02AEF00F035EF00F0C9A32FEFFA
:1000580000F031EF00F035EF00F0B8EC21F035EFAB
:1000680000F039C0FBFF38C0FAFF5592110020EFAD
:0200780022F074
:100F00000064633A202564250D0A00743A202566A2
:100F100020730D0A00696E66006E616E0000000E9F
:100F20000001C96FA1C0CAF0A2C0CBF0A3C0CCF031
:100F3000A4C0CDF0CDBFA1EF07F09FEF07F0B5EF54
:100F400007F0010EC96FCAC060F0CBC061F0CCC021
:100F500062F0CDC063F080EC21F060C0CAF061C0E7
:100F6000CBF062C0CCF063C0CDF0000E0001CF6FBB
:100F7000000ECE6FF4C0B9F0F5C0BAF0C951D8B4C4
:100F8000C4EF07F0C6EF07F0DAEF07F0C951D8A4B5
:100F9000CCEF07F0CEEF07F0D4EF07F0000EAF6F05
:100FA0002B0EAE6FD8EF07F0000EAF6F2D0EAE6FA9
:100FB000AEC0C9F0CAC060F0CBC061F0CCC062F076
:100FC000CDC063F03EEC1DF0000160056111D8A4B6
:100FD000ECEF07F0EEEF07F01EEF08F0C951D8B4C0
:100FE000F4EF07F0F6EF07F0FFEF07F0C9C000F1EC
:100FF000B907D8A0BA07000ECF6F010ECE6F000E52
:10100000CE25606F010ECF21616F150E626F60EC0F
:1010100021F00001FD0EB927FF0EBA239FC072F028
:10102000A0C073F0000E746F010E756FB9C076F03A
:10103000BAC077F015EC20F08AEF0CF0CAC060F06F
:10104000CBC061F0CCC062F0CDC063F03EEC1DF0CF
:10105000000160516111D8A430EF08F032EF08F0C0
:101060004FEF08F0C951D8B438EF08F03AEF08F064
:1010700043EF08F0C9C000F1B907D8A0BA07000EC5
:10108000CF6F010ECE6F000ECE25606F010ECF2107
:10109000616F190E626F60EC21F009EF08F0000E2D
:1010A000D06F000ED16F800ED26F3F0ED36F000E47
:1010B000B86F000EB76FCAC060F0CBC061F0CCC093
:1010C00062F0CDC063F0000E646F000E656F000E1D
:1010D000666F000E676F3FEC1FF00001D8B073EF32
:1010E00008F075EF08F057EF09F081EF08F0BBC08A
:1010F000D0F0BCC0D1F0BDC0D2F0BEC0D3F0B74B71
:10110000B82BD0C060F0D1C061F0D2C062F0D3C0C3
:1011100063F0000E646F000E656F200E666F410E67
:10112000676F4CEC11F060C0BBF061C0BCF062C0F6
:10113000BDF063C0BEF00001BB51CA5D606FBC5121
:10114000CB59616FBD51CC59626FBE51CD59636FA0
:101150004EEC20F0000163BFB9EF08F0635162115B
:10116000611109E1020E605DD8A0B9EF08F0BBEF94
:1011700008F077EF08F0BBC079F0BCC07AF0BDC0D2
:101180007BF0BEC07CF0CAC07DF0CBC07EF0CCC08E
:101190007FF0CDC080F0BBEC1CF00001D8A0D3EFF5
:1011A00008F0D5EF08F077EF08F0D051CA5D606F16
:1011B000D151CB59616FD251CC59626FD351CD59B6
:1011C000636F4EEC20F0000163BFF4EF08F0635151
:1011D0006211611107E1020E605DD8B0F2EF08F014
:1011E000F4EF08F03DEF09F0D0C0CAF0D1C0CBF069
:1011F000D2C0CCF0D3C0CDF057EF09F0D0C06EF024
:10120000D1C06FF0D2C070F0D3C071F0000E726F19
:10121000000E736F200E746F410E756F62EC13F049
:101220006EC0D0F06FC0D1F070C0D2F071C0D3F0FA
:101230000001B707D8A0B807D051CA5D606FD1517F
:10124000CB59616FD251CC59626FD351CD59636F75
:101250004EEC20F0000163BF3BEF09F063516211D7
:10126000611107E1020E605DD8B039EF09F03BEF84
:1012700009F03DEF09F0F4EF08F0CAC079F0CBC0F7
:101280007AF0CCC07BF0CDC07CF0D0C07DF0D1C076
:101290007EF0D2C07FF0D3C080F0BBEC1CF0000128
:1012A000D8A055EF09F057EF09F0FEEF08F0A5C000
:1012B000B1F0B1C0B2F0F7BF60EF09F062EF09F032
:1012C00068EF09F0F6C0AAF0F7C0ABF06CEF09F0D8
:1012D000000EAB6F060EAA6FAAC0B5F0ABC0B6F099
:1012E000B54BB62B660EB219D8A479EF09F07BEF97
:1012F00009F09BEF09F0B8BF82EF09F080EF09F029
:101300008EEF09F0000ED06F000ED16F800ED26FFD
:101310003F0ED36F000EB86F000EB76F670EB11996
:10132000D8B495EF09F097EF09F09BEF09F0B751AA
:10133000B527B851B623000EC06F000EBF6FCAC0EC
:10134000C1F0CBC0C2F0CCC0C3F0CDC0C4F0D0C09F
:10135000BBF0D1C0BCF0D2C0BDF0D3C0BEF02DEF09
:101360000AF0C1C06EF0C2C06FF0C3C070F0C4C05C
:1013700071F0D0C072F0D1C073F0D2C074F0D3C09D
:1013800075F062EC13F06EC087F06FC088F070C02B
:1013900089F071C08AF0ABEC18F087C0C5F088C046
:1013A000C6F089C0C7F08AC0C8F0C5C060F0C6C02A
:1013B00061F0C7C062F0C8C063F037EC1CF060C0D9
:1013C000B3F061C0B4F0C1C097F0C2C098F0C3C020
:1013D00099F0C4C09AF0C5C064F0C6C065F0C7C03B
:1013E00066F0C8C067F0D0C060F0D1C061F0D2C074
:1013F00062F0D3C063F04CEC11F060C09BF061C0B0
:101400009CF062C09DF063C09EF03CEC21F097C060
:10141000C1F098C0C2F099C0C3F09AC0C4F0D0C067
:101420006EF0D1C06FF0D2C070F0D3C071F0000E7A
:101430000001726F000E736F200E746F410E756F96
:1014400062EC13F06EC0D0F06FC0D1F070C0D2F07B
:1014500071C0D3F00001BF4BC02BB551BF5DC0516F
:10146000800AA66FB651800AA659D8A03AEF0AF0B2
:101470003CEF0AF0B1EF09F0D0C060F0D1C061F0EC
:10148000D2C062F0D3C063F0000E646F000E656FCF
:10149000A00E666F400E676F4CEC11F060C0C5F097
:1014A00061C0C6F062C0C7F063C0C8F0C1C079F0C7
:1014B000C2C07AF0C3C07BF0C4C07CF0C5C07DF070
:1014C000C6C07EF0C7C07FF0C8C080F0BBEC1CF087
:1014D0000001D8B06EEF0AF070EF0AF07AEF0AF070
:1014E000000EC56F000EC66F000EC76F000EC86FEE
:1014F000A3EF0AF0C1C060F0C2C061F0C3C062F0E7
:10150000C4C063F0C5C064F0C6C065F0C7C066F073
:10151000C8C067F03FEC1FF00001D8A092EF0AF0BE
:1015200094EF0AF0A3EF0AF0B3B199EF0AF09BEF42
:101530000AF0A3EF0AF0000EC56F000EC66F000E92
:10154000C76F000EC86FCAC087F0CBC088F0CCC090
:1015500089F0CDC08AF0C5C08BF0C6C08CF0C7C082
:101560008DF0C8C08EF08BEC0CF087C0C1F088C045
:10157000C2F089C0C3F08AC0C4F0C1C079F0C2C053
:101580007AF0C3C07BF0C4C07CF0000E0001646F31
:10159000000E656F200E666F410E676FBBC060F076
:1015A000BCC061F0BDC062F0BEC063F04CEC11F095
:1015B00060C07DF061C07EF062C07FF063C080F0EB
:1015C000BBEC1CF00001D8A0E8EF0AF0EAEF0AF04B
:1015D00012EF0BF0B74BB82BBBC060F0BCC061F092
:1015E000BDC062F0BEC063F0000E646F000E656F98
:1015F000200E666F410E676F4CEC11F060C0BBF0BF
:1016000061C0BCF062C0BDF063C0BEF0660E0001F8
:10161000B219D8A40EEF0BF010EF0BF012EF0BF095
:10162000B54BB62BBBC0D0F0BCC0D1F0BDC0D2F022
:10163000BEC0D3F0B7C0A8F0B8C0A9F0000EB06F1C
:10164000000EAD6F000EAC6F000EC06F000EBF6FCE
:1016500010EF0CF0C1C06EF0C2C06FF0C3C070F0EC
:10166000C4C071F0D0C072F0D1C073F0D2C074F0B9
:10167000D3C075F062EC13F06EC087F06FC088F0D5
:1016800070C089F071C08AF0ABEC18F087C0C5F06B
:1016900088C0C6F089C0C7F08AC0C8F0C5C060F075
:1016A000C6C061F0C7C062F0C8C063F037EC1CF080
:1016B000000161BF67EF0BF0615107E10A0E605D49
:1016C000D8B065EF0BF067EF0BF077EF0BF0C5C00C
:1016D00060F0C6C061F0C7C062F0C8C063F037EC0C
:1016E0001CF060C0B3F061C0B4F07BEF0BF0000EF3
:1016F000B46F090EB36F0001B051D8A482EF0BF0A4
:1017000084EF0BF0ACEF0BF0A9BF8BEF0BF089EF80
:101710000BF0ACEF0BF0000ECE25D96E010ECF21F1
:10172000DA6E2E0EDF6ECE4BCF2BB907D8A0BA07DC
:10173000010EB06FACEF0BF0000ECE25D96E010E8E
:10174000CF21DA6E300EDF6ECE4BCF2BB907D8A08B
:10175000BA07AC07D8A0AD07AC51AD11D8A4B3EF10
:101760000BF0B5EF0BF09CEF0BF0000ECE25D96E11
:10177000010ECF21DA6EB351300FDF6ECE4BCF2B7F
:10178000B907D8A0BA07C1C097F0C2C098F0C3C0CB
:1017900099F0C4C09AF0C5C064F0C6C065F0C7C077
:1017A00066F0C8C067F0D0C060F0D1C061F0D2C0B0
:1017B00062F0D3C063F04CEC11F060C09BF061C0EC
:1017C0009CF062C09DF063C09EF03CEC21F097C09D
:1017D000C1F098C0C2F099C0C3F09AC0C4F0D0C0A4
:1017E0006EF0D1C06FF0D2C070F0D3C071F0000EB7
:1017F0000001726F000E736F200E746F410E756FD3
:1018000062EC13F06EC0D0F06FC0D1F070C0D2F0B7
:1018100071C0D3F00001A807D8A0A907BF4BC02B07
:10182000B551BF5DC051800AA66FB651800AA65956
:10183000D8B01DEF0CF01FEF0CF02DEF0CF0CFBF68
:101840002BEF0CF0CF5109E14B0ECE5DD8A02BEF62
:101850000CF02DEF0CF02AEF0BF0000EC06F4F0EC6
:10186000BF6F000EBF25D96E010EC021DA6EDF6A90
:10187000000EA66F010EA76FCE51A65FCF51A75BDA
:10188000BF51A625606FC051A721616F000E626F26
:10189000010E636FCEC064F0CFC065F0A4EC20F001
:1018A0000001CE51BF5DCE6FCF51C059CF6FC9512E
:1018B000D8A45DEF0CF060EF0CF0010E61EF0CF0BE
:1018C000000EBF6FC06BC951D8B469EF0CF06BEF5D
:1018D0000CF076EF0CF0CE07D8A0CF07000ECE2587
:1018E000D96E010ECF21DA6EC9C0DFFFBF51B95FDB
:1018F000C051BA5B9FC072F0A0C073F0000ECE253D
:10190000746F010ECF21756FB9C076F0BAC077F051
:1019100015EC20F0120000018A51800B936F8A5160
:101920008A25956F89AF97EF0CF099EF0CF09AEF3D
:101930000CF095819551D8B4A0EF0CF0A2EF0CF00B
:10194000B7EF0CF09529D8A4A8EF0CF0AAEF0CF093
:10195000B2EF0CF0000E876F000E886F000E896FDB
:10196000000E8A6F898F000E8A6FBFEF0CF0000E99
:10197000876F000E886F000E896F000E8A6F8E5180
:10198000800B946F93519419D8B4C9EF0CF0CBEF3E
:101990000CF0CCEF0CF0938D8E518E25946F8DAFA3
:1019A000D4EF0CF0D6EF0CF0D7EF0CF094819451FB
:1019B000D8B4DDEF0CF0DFEF0CF0F4EF0CF094296D
:1019C000D8A4E5EF0CF0E7EF0CF0EFEF0CF0000E11
:1019D0008B6F000E8C6F000E8D6F000E8E6F8D8FD3
:1019E000000E8E6FFCEF0CF0000E8B6F000E8C6FF4
:1019F000000E8D6F000E8E6F9551945DD8B003EF81
:101A00000DF005EF0DF02CEF0DF093AD0AEF0DF09A
:101A10000CEF0DF00EEF0DF0800E931B95C096F0BD
:101A200094C095F096C094F087C096F08BC087F074
:101A300096C08BF088C096F08CC088F096C08CF071
:101A400089C096F08DC089F096C08DF08AC096F05E
:101A50008EC08AF096C08EF0000E966F955194C09D
:101A60008FF0906B8F5F000E905B90BF41EF0DF099
:101A7000905109E11A0E8F5DD8A041EF0DF043EFB0
:101A80000DF07AEF0DF08751881189118A11D8A4D1
:101A90004CEF0DF04FEF0DF0010E50EF0DF0000E7A
:101AA000966F000E876F000E886F000E896F000E14
:101AB0008A6F94C095F083EF0DF096A162EF0DF060
:101AC00064EF0DF06AEF0DF0D89096310109966F32
:101AD0006CEF0DF0D890963387A171EF0DF073EF96
:101AE0000DF074EF0DF0968F8A358A338933883381
:101AF0008733952B9451955DD8A081EF0DF083EF3E
:101B00000DF05DEF0DF093BD88EF0DF08AEF0DF055
:101B1000CAEF0DF09551D8A490EF0DF092EF0DF0B3
:101B20009CEF0DF0000E876F000E886F000E896F1E
:101B3000000E8A6FEBEF0EF08B5187278C518823B4
:101B40008D5189238E518A238AA1A9EF0DF0ABEF25
:101B50000DF057EF0EF096A1B0EF0DF0B2EF0DF0D3
:101B6000B8EF0DF0D89096310109966FBAEF0DF0ED
:101B7000D890963387A1BFEF0DF0C1EF0DF0C2EF03
:101B80000DF0968F8A358A33893388338733952BC6
:101B900057EF0EF08B51875D8C5188598D518959C3
:101BA0008A51800A8F6F8E51800A8F59D8B0DBEF2F
:101BB0000DF0DDEF0DF008EF0EF087518B5D8F6FAC
:101BC00088518C59906F89518D59916F8A518E59D6
:101BD000926FFF0E8F25876FFF0E9021886FFF0E8B
:101BE0009121896FFF0E92218A6F800E931B966D53
:101BF0009651D8A4FEEF0DF000EF0EF010EF0EF0AE
:101C0000010E8727000E882389238A2310EF0EF008
:101C10008B51875F8C51885B8D51895B8E518A5BBC
:101C20008751881189118A11D8A419EF0EF01BEF82
:101C30000EF050EF0EF09651D8A421EF0EF023EFE6
:101C40000EF050EF0EF0000E876F000E886F000E42
:101C5000896F000E8A6FEBEF0EF0D89087378837C8
:101C600089378A3796AF37EF0EF039EF0EF03AEF3B
:101C70000EF0878196A13FEF0EF041EF0EF045EF99
:101C80000EF0D880963747EF0EF0D89096379551E2
:101C9000D8B44DEF0EF04FEF0EF050EF0EF0950769
:101CA00089AF55EF0EF057EF0EF02DEF0EF0000E4E
:101CB000946F96AF5EEF0EF060EF0EF078EF0EF0DF
:101CC00096C08FF07F0E8F17D8B469EF0EF06BEFD0
:101CD0000EF06FEF0EF0010E946F78EF0EF087A10B
:101CE00074EF0EF076EF0EF078EF0EF06BEF0EF073
:101CF0009451D8B47EEF0EF080EF0EF0ABEF0EF003
:101D0000010E8727000E882389238A238AA18BEF5F
:101D10000EF08DEF0EF0ABEF0EF087C08FF088C0A5
:101D200090F089C091F08AC092F09235923391334D
:101D300090338F338FC087F090C088F091C089F0C6
:101D400092C08AF09529D8B4A8EF0EF0AAEF0EF051
:101D5000ABEF0EF0952B9529D8B4B1EF0EF0B3EFA1
:101D60000EF0BBEF0EF09551D8A4B9EF0EF0BBEF1B
:101D70000EF0CDEF0EF0000E876F000E886F000E94
:101D8000896F000E8A6F9551D8A4C9EF0EF0CBEF82
:101D90000EF0CDEF0EF0000E936F95A1D2EF0EF086
:101DA000D4EF0EF0D7EF0EF0898FD8EF0EF0899FA9
:101DB000D89095318A6F93AFE0EF0EF0E2EF0EF01E
:101DC000E3EF0EF08A8F87C087F088C088F089C063
:101DD00089F08AC08AF012002B50800B346E2B5091
:101DE0002B24366E2AAEF7EF0EF0F9EF0EF0FAEF75
:101DF0000EF036803650D8B400EF0FF002EF0FF03F
:101E000017EF0FF03628D8A408EF0FF00AEF0FF005
:101E100012EF0FF0000E286E000E296E000E2A6ED3
:101E2000000E2B6E2A8E000E2B6E1FEF0FF0000E91
:101E3000286E000E296E000E2A6E000E2B6E2F509B
:101E4000800B356E34503518D8B429EF0FF02BEFD6
:101E50000FF02CEF0FF0348C2F502F24356E2EAE58
:101E600034EF0FF036EF0FF037EF0FF035803550CD
:101E7000D8B43DEF0FF03FEF0FF054EF0FF03528DF
:101E8000D8A445EF0FF047EF0FF04FEF0FF0000E23
:101E90002C6E000E2D6E000E2E6E000E2F6E2E8EEE
:101EA000000E2F6E5CEF0FF0000E2C6E000E2D6EEC
:101EB000000E2E6E000E2F6E3650355CD8B063EFDC
:101EC0000FF065EF0FF08CEF0FF034AC6AEF0FF00E
:101ED0006CEF0FF06EEF0FF0800E341A36C037F053
:101EE00035C036F037C035F028C037F02CC028F0A8
:101EF00037C02CF029C037F02DC029F037C02DF0A5
:101F00002AC037F02EC02AF037C02EF02BC037F091
:101F10002FC02BF037C02FF0000E376E365035C073
:101F200030F0316A305E000E315A31BEA1EF0FF051
:101F3000315009E11A0E305CD8A0A1EF0FF0A3EFE9
:101F40000FF0DAEF0FF0285029102A102B10D8A428
:101F5000ACEF0FF0AFEF0FF0010EB0EF0FF0000E8F
:101F6000376E000E286E000E296E000E2A6E000ECF
:101F70002B6E35C036F0E3EF0FF037A0C2EF0FF055
:101F8000C4EF0FF0CAEF0FF0D89037300109376E69
:101F9000CCEF0FF0D890373228A0D1EF0FF0D3EF6D
:101FA0000FF0D4EF0FF0378E2B342B322A32293238
:101FB0002832362A3550365CD8A0E1EF0FF0E3EF37
:101FC0000FF0BDEF0FF034BCE8EF0FF0EAEF0FF0C9
:101FD0002AEF10F03650D8A4F0EF0FF0F2EF0FF028
:101FE000FCEF0FF0000E286E000E296E000E2A6E18
:101FF000000E2B6E4BEF11F02C5028262D5029226D
:102000002E502A222F502B222BA009EF10F00BEF7D
:1020100010F0B7EF10F037A010EF10F012EF10F043
:1020200018EF10F0D89037300109376E1AEF10F022
:10203000D890373228A01FEF10F021EF10F022EFD8
:1020400010F0378E2B342B322A3229322832362A9E
:10205000B7EF10F02C50285C2D5029582E502A58DC
:102060002B50800A306E2F50800A3058D8B03BEF8A
:1020700010F03DEF10F068EF10F028502C5C306E3F
:1020800029502D58316E2A502E58326E2B502F5811
:10209000336EFF0E3024286EFF0E3120296EFF0EA6
:1020A00032202A6EFF0E33202B6E800E341A376CCE
:1020B0003750D8A45EEF10F060EF10F070EF10F022
:1020C000010E2826000E29222A222B2270EF10F062
:1020D0002C50285E2D50295A2E502A5A2F502B5AF8
:1020E000285029102A102B10D8A479EF10F07BEF7C
:1020F00010F0B0EF10F03750D8A481EF10F083EF5C
:1021000010F0B0EF10F0000E286E000E296E000ED9
:102110002A6E000E2B6E4BEF11F0D8902836293620
:102120002A362B3637AE97EF10F099EF10F09AEF72
:1021300010F0288037A09FEF10F0A1EF10F0A5EF6E
:1021400010F0D8803736A7EF10F0D89037363650D9
:10215000D8B4ADEF10F0AFEF10F0B0EF10F03606DE
:102160002AAEB5EF10F0B7EF10F08DEF10F0000EC3
:10217000356E37AEBEEF10F0C0EF10F0D8EF10F0B4
:1021800037C030F07F0E3016D8B4C9EF10F0CBEF67
:1021900010F0CFEF10F0010E356ED8EF10F028A040
:1021A000D4EF10F0D6EF10F0D8EF10F0CBEF10F026
:1021B0003550D8B4DEEF10F0E0EF10F00BEF11F077
:1021C000010E2826000E29222A222B222BA0EBEF1B
:1021D00010F0EDEF10F00BEF11F028C030F029C037
:1021E00031F02AC032F02BC033F033343332323284
:1021F0003132303230C028F031C029F032C02AF0FC
:1022000033C02BF03628D8B408EF11F00AEF11F0E4
:102210000BEF11F0362A3628D8B411EF11F013EF76
:1022200011F01BEF11F03650D8A419EF11F01BEF8D
:1022300011F02DEF11F0000E286E000E296E000E29
:102240002A6E000E2B6E3650D8A429EF11F02BEF1A
:1022500011F02DEF11F0000E346E36A032EF11F0B8
:1022600034EF11F037EF11F02A8E38EF11F02A9E7B
:10227000D89036302B6E34AE40EF11F042EF11F0B3
:1022800043EF11F02B8E28C028F029C029F02AC076
:102290002AF02BC02BF0120000016351800B6C6FF1
:1022A00063516325726F62AF58EF11F05AEF11F06E
:1022B0005BEF11F072817251D8B461EF11F063EFEE
:1022C00011F076EF11F07229D8A469EF11F06BEFDD
:1022D00011F073EF11F0000E606F000E616F000ED1
:1022E000626F000E636F628F7EEF11F0000E606F01
:1022F000000E616F000E626F000E636F6751800BFE
:102300006C1B67516725716F66AF89EF11F08BEF1A
:1023100011F08CEF11F071817151D8B492EF11F07E
:1023200094EF11F0A7EF11F07129D8A49AEF11F0F2
:102330009CEF11F0A4EF11F0000E646F000E656FBA
:10234000000E666F000E676F668FAFEF11F0000E24
:10235000646F000E656F000E666F000E676F71513F
:10236000D8B4B5EF11F0B7EF11F0BFEF11F0725123
:10237000D8A4BDEF11F0BFEF11F0C9EF11F0000EBE
:10238000606F000E616F000E626F000E636F61EF91
:1023900013F066516003F3CF77F0F4CF78F0775104
:1023A0006D6F6E6B6F6B706B7851736F746B756B59
:1023B000766B65516103F3CF77F0F4CF78F0775106
:1023C0006D27000E6E236F23702378517327000E44
:1023D00074237523762364516203F3CF77F0F4CF2F
:1023E00078F077516D27000E6E236F23702378519C
:1023F0007327000E7423752376236FC070F06EC0B0
:102400006FF06DC06EF06D6B64516103F3CF77F0C8
:10241000F4CF78F077516D2778516E23000E6F233B
:10242000000E702365516003F3CF77F0F4CF78F09E
:1024300077516D2778516E23000E6F23000E7023A5
:102440006FC070F06EC06FF06DC06EF06D6B645158
:102450006003F3CF77F0F4CF78F077516D277851A0
:102460006E23000E6F23000E702366516103F3CFBD
:1024700077F0F4CF78F07751732778517423000EFA
:102480007523000E762365516203F3CF77F0F4CF06
:1024900078F07751732778517423000E7523000E5E
:1024A000762366516203F3CF77F0F4CF78F077515B
:1024B000686F7851696F6A6B6B6B6AC06BF069C04B
:1024C0006AF068C069F0686B6851732769517423BA
:1024D0006A5175236B5176236DC068F06EC069F048
:1024E0006FC06AF070C06BF0190E7CEF12F0D890DC
:1024F0006B336A3369336833E82E77EF12F0685133
:102500007327695174236A5175236B5176236FC009
:1025100070F06EC06FF06DC06EF06D6B715172C077
:1025200068F0696B6827000E6923820E6825776F53
:10253000FF0E6921786FB2EF12F0D89073377437BD
:102540007537763770AFA7EF12F0A9EF12F0AAEF48
:1025500012F07381D8906D376E376F377037770709
:10256000D8A0780775AFB7EF12F0B9EF12F09DEF72
:1025700012F0000E716F70AFC0EF12F0C2EF12F0E8
:10258000E6EF12F0FF0E6D15686FFF0E6E15696FA6
:10259000FF0E6F156A6F7F0E70156B6F68516911B2
:1025A0006A116B11D8B4D7EF12F0D9EF12F0DDEF4A
:1025B00012F0010E716FE6EF12F073A1E2EF12F06C
:1025C000E4EF12F0E6EF12F0D9EF12F07151D8B447
:1025D000ECEF12F0EEEF12F012EF13F0010E732792
:1025E000000E74237523762376A1F9EF12F0FBEF2A
:1025F00012F012EF13F073C068F074C069F075C088
:102600006AF076C06BF06B356B336A3369336833CD
:1026100068C073F069C074F06AC075F06BC076F082
:10262000774B782B78BF1DEF13F0785108E17729AD
:10263000D8A01DEF13F01FEF13F029EF13F0000ED9
:10264000736F000E746F800E756F7F0E766F57EF8D
:1026500013F078BF36EF13F0785106E17705D8B064
:1026600034EF13F036EF13F042EF13F0000E736FF8
:10267000000E746F000E756F000E766F000E6C6F9B
:1026800057EF13F077C072F0FF0E7317FF0E741739
:102690007F0E7517000E761772A151EF13F053EFEE
:1026A00013F054EF13F0758FD8907231766F6C5130
:1026B000761373C060F074C061F075C062F076C0CC
:1026C00063F0120000017151800B7E6F7151712512
:1026D000856F70AF6EEF13F070EF13F071EF13F0C2
:1026E00085818551D8B477EF13F079EF13F08EEF31
:1026F00013F08529D8A47FEF13F081EF13F089EF51
:1027000013F0000E6E6F000E6F6F000E706F000EF4
:10271000716F708F000E716F96EF13F0000E6E6F79
:10272000000E6F6F000E706F000E716F7551800B91
:102730007E1B75517525866F74AFA1EF13F0A3EF63
:1027400013F0A4EF13F086818651D8B4AAEF13F0EA
:10275000ACEF13F0C1EF13F08629D8A4B2EF13F059
:10276000B4EF13F0BCEF13F0000E726F000E736F36
:10277000000E746F000E756F748F000E756FC9EFC9
:1027800013F0000E726F000E736F000E746F000E68
:10279000756F7251731174117511D8A4D2EF13F0C3
:1027A000D4EF13F0ECEF13F0000E6E6F000E6F6FAE
:1027B000000E706F000E716F800E70137F0E71131C
:1027C0007E5171136EC06EF06FC06FF070C070F00C
:1027D00071C071F02FEF15F08551D8A4F2EF13F00E
:1027E000F4EF13F0FEEF13F0000E6E6F000E6F6F3C
:1027F000000E706F000E716F2FEF15F0865185C0BF
:1028000076F0776B765F000E775B7F0E76257F6FB5
:10281000000E7721806F6EC07AF06FC07BF070C0C1
:102820007CF071C07DF0000E6E6F000E6F6F000EB9
:10283000706F000E716F000E816F000E826F000EC0
:10284000836F000E846F000E866F5FEF14F0865169
:10285000D8B42DEF14F02FEF14F046EF14F0D89009
:102860007A377B377C377D37D8906E376F37703744
:10287000713784AF3EEF14F040EF14F041EF14F0E5
:102880006E81D890813782378337843772517A5D71
:1028900073517B5974517C5975517D59D8A053EFB0
:1028A00014F055EF14F05EEF14F0848D72517A5FDE
:1028B00073517B5B74517C5B75517D5B862B190E6C
:1028C000866565EF14F067EF14F027EF14F07A5186
:1028D0007B117C117D11D8B470EF14F072EF14F0FD
:1028E0008AEF14F081818AEF14F0D8906E376F3739
:1028F0007037713784AF7FEF14F081EF14F082EFFF
:1029000014F06E81D89081378237833784377F0700
:10291000D8A0800770AF8FEF14F091EF14F075EF2F
:1029200014F0000E866F84AF98EF14F09AEF14F055
:10293000BEEF14F0FF0E8115766FFF0E8215776FD4
:10294000FF0E8315786F7F0E8415796F765177119E
:1029500078117911D8B4AFEF14F0B1EF14F0B5EFEE
:1029600014F0010E866FBEEF14F06EA1BAEF14F0F2
:10297000BCEF14F0BEEF14F0B1EF14F08651D8B4F0
:10298000C4EF14F0C6EF14F0EAEF14F0010E6E2756
:10299000000E6F237023712371A1D1EF14F0D3EFD8
:1029A00014F0EAEF14F06EC076F06FC077F070C0EC
:1029B00078F071C079F079357933783377337633BD
:1029C00076C06EF077C06FF078C070F079C071F0AB
:1029D0007F4B802B80BFF5EF14F0805108E17F29F9
:1029E000D8A0F5EF14F0F7EF14F002EF15F0000E99
:1029F000806F7F69000E6E6F000E6F6F000E706F3C
:102A0000000E716F80BF0FEF15F0805106E17F055A
:102A1000D8B00DEF15F00FEF15F01DEF15F0000E0B
:102A2000806F000E7F6F000E6E6F000E6F6F000ED6
:102A3000706F000E716F000E7E6F7FC085F085A1F4
:102A400024EF15F026EF15F029EF15F0708F2AEF1F
:102A500015F0709FD8908531716FE0EF13F0120080
:102A60001250800B1F6E12501224266E11AE3BEFD7
:102A700015F03DEF15F03EEF15F026802650D8B446
:102A800044EF15F046EF15F05BEF15F02628D8A4BB
:102A90004CEF15F04EEF15F056EF15F0000E0F6EDF
:102AA000000E106E000E116E000E126E118E000ED2
:102AB000126E63EF15F0000E0F6E000E106E000E1A
:102AC000116E000E126E1650800B1F1A165016242F
:102AD000276E15AE6EEF15F070EF15F071EF15F073
:102AE00027802750D8B477EF15F079EF15F08EEFE7
:102AF00015F02728D8A47FEF15F081EF15F089EFA6
:102B000015F0000E136E000E146E000E156E000E02
:102B1000166E158E000E166E96EF15F0000E136EE3
:102B2000000E146E000E156E000E166E135014106B
:102B300015101610D8A49FEF15F0A1EF15F0B9EFFE
:102B400015F0000E0F6E000E106E000E116E000ECE
:102B5000126E800E11127F0E12121F5012120FC031
:102B60000FF010C010F011C011F012C012F0FCEF05
:102B700016F02650D8A4BFEF15F0C1EF15F0CBEF3B
:102B800015F0000E0F6E000E106E000E116E000E8E
:102B9000126EFCEF16F0275026C017F0186A175E69
:102BA000000E185A7F0E1724206E000E1820216E7A
:102BB0000FC01BF010C01CF011C01DF012C01EF0A1
:102BC000000E0F6E000E106E000E116E000E126ED3
:102BD000000E226E000E236E000E246E000E256E77
:102BE000000E276E2CEF16F02750D8B4FAEF15F030
:102BF000FCEF15F013EF16F0D8901B361C361D367F
:102C00001E36D8900F3610361136123625AE0BEF21
:102C100016F00DEF16F00EEF16F00F80D89022365A
:102C200023362436253613501B5C14501C5815507F
:102C30001D5816501E58D8A020EF16F022EF16F09F
:102C40002BEF16F0258C13501B5E14501C5A155098
:102C50001D5A16501E5A272A190E276432EF16F0F5
:102C600034EF16F0F4EF15F01B501C101D101E1061
:102C7000D8B43DEF16F03FEF16F057EF16F0228074
:102C800057EF16F0D8900F3610361136123625AEA3
:102C90004CEF16F04EEF16F04FEF16F00F80D89075
:102CA00022362336243625362006D8A0210611AE3A
:102CB0005CEF16F05EEF16F042EF16F0000E276E96
:102CC00025AE65EF16F067EF16F08BEF16F0FF0EEE
:102CD0002214176EFF0E2314186EFF0E2414196EA3
:102CE0007F0E25141A6E1750181019101A10D8B428
:102CF0007CEF16F07EEF16F082EF16F0010E276ED5
:102D00008BEF16F00FA087EF16F089EF16F08BEF20
:102D100016F07EEF16F02750D8B491EF16F093EF2F
:102D200016F0B7EF16F0010E0F26000E102211223A
:102D3000122212A09EEF16F0A0EF16F0B7EF16F0D9
:102D40000FC017F010C018F011C019F012C01AF01F
:102D50001A341A3219321832173217C00FF018C04D
:102D600010F019C011F01AC012F0204A212A21BE19
:102D7000C2EF16F0215008E12028D8A0C2EF16F0CB
:102D8000C4EF16F0CFEF16F0000E216E2068000E93
:102D90000F6E000E106E000E116E000E126E21BE30
:102DA000DCEF16F0215006E12004D8B0DAEF16F07F
:102DB000DCEF16F0EAEF16F0000E216E000E206E2A
:102DC000000E0F6E000E106E000E116E000E126ED1
:102DD000000E1F6E20C026F026A0F1EF16F0F3EFD4
:102DE00016F0F6EF16F0118EF7EF16F0119ED89050
:102DF0002630126EADEF15F012000001D651D96EDB
:102E0000DA6ADFCFF6FF0F0EF76E000EF86E0800DD
:102E1000F550250AD8A40FEF17F011EF17F095EF32
:102E200018F0D651D96EDA6ADF2A000EF56F000E5F
:102E3000F46FF4C0FAF0F669F769D651D96EDA6A20
:102E4000DF50DF6FDFC0F6FF0F0EF76E000EF86E7B
:102E50000800F550640AD8B430EF17F032EF17F0DD
:102E600042EF17F0DFC0F6FF0F0EF76E000EF86EA0
:102E70000800F550690AD8A440EF17F042EF17F0A8
:102E8000D3EF17F0D751D96EDA6A020EDF26DF5C76
:102E9000D96EDA6ADECFDBF0DECFDCF0D651D96E48
:102EA000DA6ADF29DF6E500EE06FDCBF5AEF17F0F1
:102EB0005DEF17F0010E5EEF17F0000EDA6FE0071E
:102EC000000EE025D96EDA6A010EDA22DBC060F06E
:102ED000DCC061F0000E636F0A0E626FE6EC1EF05C
:102EE00060C066F061C067F09DEC21F000016651A2
:102EF000300FDF6EDBC060F0DCC061F0000E636F8E
:102F00000A0E626F24EC1EF060C0DBF061C0DCF0E2
:102F10000001DB51DC11D8B490EF17F092EF17F0FD
:102F20009AEF17F0E051D8A498EF17F09AEF17F046
:102F30005FEF17F0E051D8B4A0EF17F0A2EF17F051
:102F4000C8EF17F0DA51D8B4A8EF17F0AAEF17F0CE
:102F5000C8EF17F0E007000EE025D96EDA6A010E1F
:102F6000DA222D0EDF6EC8EF17F0000EE025D96EC5
:102F7000DA6A010EDA22DF50D86FD851626F636BC4
:102F8000D4C064F0D5C065F0BEEC1DF00001E02BAC
:102F9000500EE019D8A4CFEF17F0D1EF17F0B5EF2E
:102FA00017F0AAEF18F0D651D96EDA6ADF50DF6F4A
:102FB000DFC0F6FF0F0EF76E000EF86E0800F5CFBB
:102FC000E0F0EEEF17F0DF2B07EF18F06C0EE06F7C
:102FD00007EF18F0000EE06F07EF18F0E051D86F20
:102FE000D96BD951000AD8B4F8EF17F0EAEF17F00F
:102FF000D8514C0AD8B4E3EF17F02A0AD8B4E6EF58
:1030000017F00A0AD8B4E3EF17F0EAEF17F0DFC0C1
:10301000F6FF0F0EF76E000EF86E0800F550660A08
:10302000D8A415EF18F017EF18F08EEF18F041EF55
:1030300018F0D751D96EDA6ADFCFD8F0040EDF2648
:10304000D851D96EDA6ADECFDBF0DECFDCF0DECF2E
:10305000DDF0DECFDEF056EF18F0D751D96EDA6A28
:10306000DFCFD8F0040EDF26D851D96EDA6ADECF72
:10307000DBF0DECFDCF0DECFDDF0DECFDEF056EFD2
:1030800018F0E051D86FD96BD951000AD8B44BEF82
:1030900018F056EF18F0D8514C0AD8B42DEF18F0AC
:1030A000200AD8B419EF18F056EF18F0D651D96E9F
:1030B000DA6ADF29DF6E76EF18F0D4C09FF0D5C052
:1030C000A0F0DBC0A1F0DCC0A2F0DDC0A3F0DEC048
:1030D000A4F0DFC0F6FF0F0EF76E000EF86E0800CA
:1030E000F5CFA5F08FEC07F0AAEF18F0DFC0F6FFE0
:1030F0000F0EF76E000EF86E0800F550D86FD96B02
:10310000D951000AD8B487EF18F08EEF18F0D851D3
:10311000660AD8B45DEF18F08EEF18F00001D651B2
:10312000D96EDA6ADF2AAAEF18F0D651D96EDA6AB8
:10313000DFCFF6FF0F0EF76E000EF86E0800F550A9
:10314000626F636BD4C064F0D5C065F0BEEC1DF057
:103150008EEF18F01200ECC097F0EDC098F0EEC0C2
:1031600099F0EFC09AF087C097F088C098F089C0B6
:1031700099F08AC09AF0810E00018B6FFF0E8C6F60
:1031800097C08DF098C08EF099C08FF09AC090F0E3
:10319000180ED0EF18F0D89090338F338E338D33D4
:1031A000E82ECBEF18F08D518B25956F000E8C21FA
:1031B000966F96BFE5EF18F0965109E1170E955DF1
:1031C000D8A0E5EF18F0E7EF18F0F1EF18F087C09E
:1031D00087F088C088F089C089F08AC08AF0B5EF8E
:1031E00019F096BFF6EF18F0F8EF18F069EF19F044
:1031F00095C08BF0FF0E8C6FFF0E8D6F7F0E8E6F64
:10320000000E8F6F8B6707EF19F00FEF19F08F35F6
:103210008F338E338D338C338B2F02EF19F08CC0AC
:1032200091F08DC092F08EC093F08FC094F00001A9
:10323000915197158B6F925198158C6F93519915E9
:103240008D6F94519A158E6F8B518C118D118E113B
:10325000D8A42DEF19F02FEF19F031EF19F0E7EFA7
:1032600018F097C08BF098C08CF099C08DF09AC080
:103270008EF0200E41EF19F0D8908E338D338C33C1
:103280008B33E82E3CEF19F08B518C118D118E1180
:10329000D8B44DEF19F04FEF19F057EF19F09151E5
:1032A0009727925198239351992394519A23911DD2
:1032B0008B6F921D8C6F931D8D6F941D8E6F8B5134
:1032C00097178C5198178D5199178E519A17ADEF0A
:1032D00019F097C08BF098C08CF099C08DF09AC00F
:1032E0008EF0200E79EF19F0D8908E338D338C3319
:1032F0008B33E82E74EF19F08B518C118D118E11D8
:10330000D8A485EF19F087EF19F091EF19F0000EAE
:10331000976F000E986F000E996F000E9A6FADEFC9
:1033200019F0D89097358B6F98358C6F99358D6FD4
:103330009A358E6F8B518C118D118E11D8B4A3EFED
:1033400019F0A5EF19F0ADEF19F0000E976F000E10
:10335000986F800E996FBF0E9A6F97C087F098C0D4
:1033600088F099C089F09AC08AF012000001686F55
:1033700000016851D8B4BFEF19F0C1EF19F0E3EFC5
:1033800019F063BFC8EF19F0C6EF19F0E3EF19F0B9
:1033900060C064F061C065F062C066F063C067F051
:1033A000641F651F661F671F642B000E652366235D
:1033B000672364C06AF065C06BF066C06CF067C0DC
:1033C0006DF0EBEF19F060C06AF061C06BF062C0A5
:1033D0006CF063C06DF06051611162116311D8A48B
:1033E000F4EF19F0F6EF19F000EF1AF0000E606F2D
:1033F000000E616F000E626F000E636F91EF1AF0A6
:10340000960E696F0AEF1AF0692BD8906D336C3302
:103410006B336A33000E6A15646F000E6B15656FAF
:10342000000E6C15666FFE0E6D15676F64516511A9
:1034300066116711D8A41FEF1AF021EF1AF004EFFC
:103440001AF02FEF1AF0692B010E6A27000E6B237A
:103450006C236D23D8906D336C336B336A33000E5D
:103460006A15646F000E6B15656F000E6C15666F44
:10347000FF0E6D15676F6451651166116711D8A451
:1034800044EF1AF046EF1AF023EF1AF04EEF1AF05D
:103490006907D8906A376B376C376D376CBF53EF5D
:1034A0001AF055EF1AF05DEF1AF0020E69615BEF4A
:1034B0001AF05DEF1AF048EF1AF069B162EF1AF0F6
:1034C00064EF1AF065EF1AF06C9FD890693369C009
:1034D00064F0656B666B676B64C067F0666B656B09
:1034E000646B64516A1365516B1366516C136751B9
:1034F0006D136851D8B47FEF1AF081EF1AF089EF9D
:103500001AF063BF88EF1AF086EF1AF089EF1AF00D
:103510006D8F6AC060F06BC061F06CC062F06DC00E
:1035200063F01200096E0950D8B499EF1AF09BEFBE
:103530001AF0BDEF1AF004BEA2EF1AF0A0EF1AF0D5
:10354000BDEF1AF001C005F002C006F003C007F09D
:1035500004C008F0051E061E071E081E052A000EE0
:1035600006220722082205C00BF006C00CF007C097
:103570000DF008C00EF0C5EF1AF001C00BF002C04C
:103580000CF003C00DF004C00EF001500210031047
:103590000410D8A4CEEF1AF0D0EF1AF0DAEF1AF038
:1035A000000E016E000E026E000E036E000E046E21
:1035B0006BEF1BF0960E0A6EE4EF1AF00A2AD89011
:1035C0000E320D320C320B32000E0B14056E000E53
:1035D0000C14066E000E0D14076EFE0E0E14086E0F
:1035E0000550061007100810D8A4F9EF1AF0FBEFE9
:1035F0001AF0DEEF1AF009EF1BF00A2A010E0B2673
:10360000000E0C220D220E22D8900E320D320C32FA
:103610000B32000E0B14056E000E0C14066E000E1D
:103620000D14076EFF0E0E14086E055006100710DD
:103630000810D8A41EEF1BF020EF1BF0FDEF1AF0CE
:1036400028EF1BF00A06D8900B360C360D360E36D6
:103650000DBE2DEF1BF02FEF1BF037EF1BF0020E0E
:103660000A6035EF1BF037EF1BF022EF1BF00AB0BA
:103670003CEF1BF03EEF1BF03FEF1BF00D9ED89090
:103680000A320AC005F0066A076A086A05C008F02F
:10369000076A066A056A05500B1206500C1207509D
:1036A0000D1208500E120950D8B459EF1BF05BEF01
:1036B0001BF063EF1BF004BE62EF1BF060EF1BF02A
:1036C00063EF1BF00E8E0BC001F00CC002F00DC0BA
:1036D00003F00EC004F0120075EC22F07AEC20F03A
:1036E00087EC1EF0AA0E0001606F3F0E616F000EA6
:1036F000626FA3EC22F02A0E0001606F3F0E616F33
:10370000000E626FA3EC22F0F28EF28C9A0E000192
:10371000606F410E616F000E626F95EC22F0BFEC9E
:1037200022F051C060F052C061F00001626B636B27
:10373000000EB6EC19F060C087F061C088F062C07E
:1037400089F063C08AF0000E0001726F000E736F83
:103750007A0E746F440E756F53C060F054C061F000
:10376000626B636B000EB6EC19F060C06EF061C066
:103770006FF062C070F063C071F062EC13F06EC065
:103780008BF06FC08CF070C08DF071C08EF08BEC40
:103790000CF087C03AF088C03BF089C03CF08AC08A
:1037A0003DF00B0E0001E66F3AC0E7F03BC0E8F0D9
:1037B0003CC0E9F03DC0EAF04CEC22F08CB0E3EF05
:1037C0001BF0E5EF1BF002EF1CF0848E0001F951B5
:1037D00007E1640EF85DD8B0F0EF1BF0F2EF1BF0DC
:1037E000F8EF1BF0190EF825F86F000EF921F96FAC
:1037F000010EE66FF8C0E7F0F9C0E8F04CEC22F0FB
:1038000091EF1BF08CB207EF1CF009EF1CF026EFD4
:103810001CF0849E0001F95107E1640EF85DD8B0F8
:1038200014EF1CF016EF1CF01CEF1CF0190EF8251D
:10383000F86F000EF921F96F010EE66FF8C0E7F09E
:10384000F9C0E8F04CEC22F091EF1BF0000E000103
:10385000F96F000EF86F010EE66F000EE86F000EB4
:10386000E76F4CEC22F091EF1BF03BEF00F0000112
:1038700062356335696F6951D8A441EF1CF043EF9D
:103880001CF04DEF1CF0000E606F000E616F000E1B
:10389000626F000E636FBAEF1CF060C064F061C02D
:1038A00065F062C066F063C067F0200E5DEF1CF04B
:1038B000D8906733663365336433E82E58EF1CF0D5
:1038C0006451686F628FFF0E6017FF0E6117FF0E65
:1038D0006217000E6317960E695F69BF74EF1CF0E4
:1038E00072EF1CF08AEF1CF06951800A970FD8B074
:1038F0007CEF1CF07EEF1CF080EF1CF043EF1CF01F
:10390000D8906333623361336033693F80EF1CF0DA
:10391000A2EF1CF01F0E696590EF1CF092EF1CF0F7
:103920009AEF1CF043EF1CF0D89060376137623794
:10393000633769076951D8A4A0EF1CF0A2EF1CF00F
:1039400094EF1CF06851D8B4A8EF1CF0AAEF1CF05B
:10395000B2EF1CF0631F621F611F606D000E6123D8
:103960006223632360C060F061C061F062C062F0F6
:1039700063C063F01200000E00017915816F000E24
:103980007A15826F800E7B15836F7F0E7C15846F96
:103990008151821183118411D8A4D1EF1CF0D3EF8F
:1039A0001CF0DBEF1CF0000E796F000E7A6F000E3A
:1039B0007B6F000E7C6F000E7D15816F000E7E15F3
:1039C000826F800E7F15836F7F0E8015846F81510B
:1039D000821183118411D8A4F0EF1CF0F2EF1CF0D7
:1039E000FAEF1CF0000E7D6F000E7E6F000E7F6FF1
:1039F000000E806F7CAFFFEF1CF001EF1DF00AEFAF
:103A00001DF0796D7A1FD8B07A2B7B1FD8B07B2B35
:103A1000800E7C5780AF0FEF1DF011EF1DF01AEFF5
:103A20001DF07D6D7E1FD8B07E2B7F1FD8B07F2B01
:103A3000800E8057000E791B000E7A1B000E7B1B38
:103A4000800E7C1B000E7D1B000E7E1B000E7F1B5C
:103A5000800E801B7D51795D7E517A597F517B5953
:103A600080517C59D8B037EF1DF039EF1DF03CEF95
:103A70001DF0D8903DEF1DF0D8801200F0C06AF024
:103A8000F1C06BF0F2C06CF0F3C06DF060C06AF092
:103A900061C06BF062C06CF063C06DF06AC064F02E
:103AA0006BC065F06CC066F06DC067F0180E5FEF1C
:103AB0001DF00001D8906733663365336433E82E18
:103AC00059EF1DF06451686F696B68516911D8A492
:103AD0006CEF1DF06EEF1DF08EEF1DF0D8906A3583
:103AE000646F6B35656F6C35666F6D35676F6451EC
:103AF000651166116711D8A480EF1DF082EF1DF0EB
:103B000088EF1DF0000E616F020E606FBDEF1DF0BB
:103B1000000E616F030E606FBDEF1DF06829691123
:103B2000D8A495EF1DF097EF1DF0B9EF1DF06AC016
:103B300064F06BC065F06CC066F06DC067F0090E94
:103B4000D8906437653766376737E82EA0EF1DF0E9
:103B50006451651166116711D8B4B1EF1DF0B4EF6F
:103B60001DF0010EB5EF1DF0000E606F616BBDEF33
:103B70001DF0000E616F040E606F120000016451B1
:103B80006511D8B4C6EF1DF0C8EF1DF0D1EF1DF0E0
:103B900064516511D8A4CFEF1DF0D1EF1DF0D6EF21
:103BA0001DF062518EEC22F023EF1EF020EE0AF0A1
:103BB0006451D9266551DA22DE50DE10D8B4E3EF25
:103BC0001DF0E5EF1DF000EF1EF020EE0AF064514D
:103BD000D9266551DA2210EE03F06451E1266551D1
:103BE000E222DE50E65CE650800A6A6FDE50800A10
:103BF0006A59D8B0FEEF1DF000EF1EF023EF1EF063
:103C000020EE03F06451D9266551DA22DECF66F04A
:103C1000DDCF67F064C0D9FF65C0DAFFDECF68F0A2
:103C2000DDCF69F066516825D96E67516921DA6E7A
:103C300062C0DFFF20EE03F06451D9266551DA221D
:103C4000DE2A000EDD221200000E0001656F63BF48
:103C50002EEF1EF02CEF1EF034EF1EF0626D631F8E
:103C6000D8B0632B010E656F61BF3BEF1EF039EFDB
:103C70001EF041EF1EF0606D611FD8B0612B010E88
:103C8000651B000E676F000E666F62516311D8B43A
:103C90004CEF1EF04EEF1EF076EF1EF0010E646F3B
:103CA00056EF1EF0D89062376337642B63AF5BEF3B
:103CB0001EF05DEF1EF052EF1EF0D89066376737AA
:103CC0006251605D63516159D8A069EF1EF06BEFDE
:103CD0001EF070EF1EF06251605F6351615B6681A0
:103CE000D89063336233642F5DEF1EF06551D8B412
:103CF0007CEF1EF07EEF1EF082EF1EF0666D671FF8
:103D0000D8B0672B66C060F067C061F01200000E8B
:103D1000866E000E856E000E826E000E836E000EA3
:103D2000846E060E8B6E8768BF0E886E7F0E896E5E
:103D3000FE0E8A6EFC0E0F01216F7F0E1C6FBF0EF0
:103D4000146F060E296FFC0E0C6F000E206F000E14
:103D5000286F000E136F030E0B6F000E1B6F000E0B
:103D6000276F000E0A6F000E126F000E1A6F000E02
:103D70001F6F0969116919691E69070E266F0869A5
:103D8000106918691D690F0E256F0591059306814D
:103D9000068307910793900E0001606F450E616FD7
:103DA000000E626FA3EC22F08E0E0001606F450ED4
:103DB000616F000E626F9CEC22F00E01BD890B0E4C
:103DC000F06F0B0EFA6F190E886F1200000E0001D3
:103DD000656F61BFF0EF1EF0EEEF1EF0F6EF1EF024
:103DE000606D611FD8B0612B010E656F63BFFDEF81
:103DF0001EF0FBEF1EF001EF1FF0626D631FD8B0E5
:103E0000632B62516311D8B408EF1FF00AEF1FF063
:103E10002EEF1FF0010E646F12EF1FF0D890623783
:103E20006337642B63AF17EF1FF019EF1FF00EEF2E
:103E30001FF06251605D63516159D8A022EF1FF0FD
:103E400024EF1FF028EF1FF06251605F6351615B48
:103E5000D89063336233642F19EF1FF06551D8B4E3
:103E600034EF1FF036EF1FF03AEF1FF0606D611F67
:103E7000D8B0612B60C060F061C061F01200000E2C
:103E800000016015686F000E6115696F800E621584
:103E90006A6F7F0E63156B6F685169116A116B1140
:103EA000D8A455EF1FF057EF1FF05FEF1FF0000E83
:103EB000606F000E616F000E626F000E636F000E88
:103EC0006415686F000E6515696F800E66156A6F60
:103ED0007F0E67156B6F685169116A116B11D8A459
:103EE00074EF1FF076EF1FF07EEF1FF0000E646F8F
:103EF000000E656F000E666F000E676F64516019EB
:103F00000FE1655161190CE16651621909E16751D0
:103F10006319D8B48EEF1FF090EF1FF093EF1FF0EE
:103F2000D89094EF1FF0D8801200849E51C001F009
:103F300052C002F0036A046A000E92EC1AF001C04B
:103F400028F002C029F003C02AF004C02BF0000EB4
:103F5000136E000E146E7A0E156E440E166E53C05C
:103F600001F054C002F0036A046A000E92EC1AF0E9
:103F700001C00FF002C010F003C011F004C012F035
:103F800030EC15F00FC02CF010C02DF011C02EF049
:103F900012C02FF0ECEC0EF028C04DF029C04EF00E
:103FA0002AC04FF02BC050F01200848E51C001F097
:103FB00052C002F0036A046A000E92EC1AF001C0CB
:103FC00028F002C029F003C02AF004C02BF0000E34
:103FD000136E000E146E7A0E156E440E166E53C0DC
:103FE00001F054C002F0036A046A000E92EC1AF069
:103FF00001C00FF002C010F003C011F004C012F0B5
:1040000030EC15F00FC02CF010C02DF011C02EF0C8
:1040100012C02FF0ECEC0EF028C04DF029C04EF08D
:104020002AC04FF02BC050F01200000177BF1DEFE7
:1040300020F01BEF20F021EF20F0000E776F000E34
:10404000766F000E7A6F000E796F34EF20F0000E5D
:10405000636F200E626F72C064F073C065F0BEECD7
:104060001DF00001794B7A2B7651795D7A51800AE7
:10407000786F7751800A7859D8A041EF20F043EF4C
:1040800020F027EF20F074C06BF075C06CF072C0A8
:104090006DF073C06EF018EC21F01200000163BFE8
:1040A00054EF20F056EF20F060EF20F060C060F099
:1040B00061C061F062C062F063C063F079EF20F02C
:1040C00060C064F061C065F062C066F063C067F014
:1040D000641F651F661F671F642B000E6523662320
:1040E000672364C060F065C061F066C062F067C0BD
:1040F00063F01200080E0E019A6F900E986F240E56
:10410000996F190E966F000E976F000E0001606F89
:10411000000E616F000E626FB1EC22F0000E000124
:10412000606F000E616F000E626FAAEC22F0000E4D
:104130000001606F000E616F000E626FB8EC22F03C
:10414000000E0001FB6F120062C069F063C06AF0EC
:1041500060C067F061C068F0BEEF20F069C0D9FFB1
:104160006AC0DAFFDF50666F694B6A2B67C0D9FF00
:1041700068C0DAFF66C0DFFF674B682B0001640789
:10418000D8A06507642906E16529D8A4CAEF20F004
:10419000CCEF20F0AEEF20F01200534A542AE80E84
:1041A000535C030E5458D8A0D8EF20F0DAEF20F07B
:1041B000F2EF20F0180E5324536EFC0E5420546E70
:1041C000514A522A86B0E7EF20F0EAEF20F0010EC4
:1041D000EBEF20F0000EFF0A016E86500118FE0B77
:1041E0000118866E1200E3C0E5F002EF21F0E1C095
:1041F000D4F0E2C0D5F0E50E0001D66FE4C0D7F0F0
:10420000FDEC16F0E5C0F6FF0F0EF76E000EF86E2F
:104210000800F5500009D8A410EF21F012EF21F0AA
:10422000F7EF20F0000E0001E26F000EE16F1200C8
:10423000000E0001716F000E706F2BEF21F06FC048
:1042400062F0636B6DC064F06EC065F0BEEC1DF093
:104250000001704B712B70516B25D96E71516C211F
:10426000DA6EDF506F6F6F51D8A439EF21F03BEF5A
:1042700021F01FEF21F01200000E00019B1B000E29
:104280009C1B000E9D1B800E9E1B97C087F098C044
:1042900088F099C089F09AC08AF09BC08BF09CC0CE
:1042A0008CF09DC08DF09EC08EF08BEC0CF087C022
:1042B00097F088C098F089C099F08AC09AF01200EF
:1042C00060C064F061C065F00001622B6205636F3D
:1042D00063C0F6FF0F0EF76E000EF86E64C0D9FFD4
:1042E00065C0DAFF644B652B0800F5CFDFFFDF50B8
:1042F000D8A47DEF21F07FEF21F064EF21F01200D0
:1043000000016051611162116311D8B48AEF21F08C
:104310008CEF21F094EF21F0000E601B000E611B6A
:10432000000E621B800E631B60C060F061C061F014
:1043300062C062F063C063F01200000167BFA3EFC8
:1043400021F0A5EF21F0ABEF21F066C066F067C069
:1043500067F0B7EF21F066C068F067C069F0681FCA
:10436000691F684B692B68C066F069C067F012006E
:104370000E01C9930001FC51FD11FE11D8B4C3EF29
:1043800021F0C5EF21F0D2EF21F002D8D2EF21F0D9
:104390000500FA6EFC51FD6EFD51FE6EFE51FF6E82
:1043A000FA50120012003E503F104010D8B4DBEF1C
:1043B00021F0DDEF21F0EAEF21F002D8EAEF21F061
:1043C0000500FA6E3E50FD6E3F50FE6E4050FF6E8F
:1043D000FA5012000F010593120041504210431091
:1043E000D8B4F5EF21F0F7EF21F004EF22F002D876
:1043F00004EF22F00500FA6E4150FD6E4250FE6E51
:104400004350FF6EFA5012000F0105911200040E86
:10441000BE6E000EBD6E000EBF6E010EBB6E000EB6
:10442000BA6E0E01C993C1838C0E0001606F450EF8
:10443000616F000E626F95EC22F0A30EBC6E12004D
:1044400001EE00F0500EEE6AE806FDE100EEECF041
:10445000100EEE6AE806FDE100EE4DF0080EEE6A81
:10446000E806FDE15590559200016CEF1BF00F013D
:1044700005A13DEF22F03FEF22F041EF22F0EDECFD
:1044800021F00F0105A347EF22F049EF22F04BEF97
:1044900022F0D3EC21F01200E70E0001EB6F000ECA
:1044A000E16F000EE26FE6C0E3F0EB0EE46FF3ECB9
:1044B00020F01200000E0E01DC6F000EDD6F000E0A
:1044C000DE6F000EDF6F000EE06F000EE16F120076
:1044D0000001606F0E01C8AD70EF22F072EF22F0A4
:1044E0006AEF22F060C095FE1200C4EC22F05AEC94
:1044F00022F087EC1EF082EC22F007EC22F07AEC3E
:1045000020F01200620E0E01D36F000ED56F000E68
:10451000D76F020ED96F000ED86F12000001616FC5
:104520000001615168EC22F0120060C0FCF061C033
:10453000FDF062C0FEF0120060C03EF061C03FF0CE
:1045400062C040F0120060C041F061C042F062C041
:1045500043F0120060C047F061C048F062C049F00B
:10456000120060C04AF061C04BF062C04CF0120013
:1045700060C044F061C045F062C046F01200C2EC79
:1045800022F01200BC8E1200F29A120012001200E9
:02459000120017
:020000040030CA
:0C000000ECFFFFFF9FFFFFDFFFFFFFFF93
:00000001FF
